:020000040800F2
:1000000008520020DD010008C72C000893280008D2
:10001000C52C0008A31400082D34000800000000BF
:100020000000000000000000000000004501000882
:10003000A514000800000000890100083D300008F8
:10004000F7010008F7010008F7010008F7010008B0
:10005000F7010008F7010008F7010008F7010008A0
:10006000F7010008F7010008F7010008F701000890
:10007000F7010008F7010008F7010008F701000880
:10008000F7010008F7010008F7010008F701000870
:10009000F7010008F7010008F7010008F701000860
:1000A000F7010008F7010008F7010008F701000850
:1000B000F7010008F7010008F7010008F701000840
:1000C000F7010008F7010008F7010008F701000830
:1000D000F7010008C1330008F7010008F701000824
:1000E000F7010008F7010008F7010008F701000810
:1000F000F7010008F7010008F7010008F701000800
:10010000F7010008F7010008F7010008F7010008EF
:10011000F7010008F701000811310008F701000895
:10012000F7010008F7010008F7010008F7010008CF
:10013000DFF80CD000F016FD0048004779480008B1
:1001400008520020224B19680868B0E8F00F80F3CD
:100150000988BFF36F8F4FF0000080F311884EF0D5
:100160000D0E70470000000006480068006880F32C
:10017000088862B661B6BFF34F8FBFF36F8F00DFA1
:1001800000BF00BF08ED00E0EFF30980BFF36F8F01
:100190000F4B1A6820E9F00F106008B54FF05000BF
:1001A00080F31188BFF34F8FBFF36F8F05F01AFCF8
:1001B0004FF0000080F31188BDE808401968086816
:1001C000B0E8F00F80F30988BFF36F8F704700BF6E
:1001D00038040020EFF30580704700000648804790
:1001E00006480047FEE7FEE7FEE7FEE7FEE7FEE71C
:1001F000FEE7FEE7FEE7FEE7C93000083101000830
:10020000202A04DB203A21FA02F00021704721FA6B
:1002100002F3D040C2F120029140084319467047D2
:1002200040EA01039B0703D009E008C9121F08C078
:10023000042AFAD203E011F8013B00F8013B521EF8
:10024000F9D27047D2B201E000F8012B491EFBD26F
:1002500070470022F6E710B513460A4604461946D1
:10026000FFF7F0FF204610BD2DE9F04105460020C4
:1002700090460E46044600E0641C44450BD2285DBF
:1002800000F0E1F90746305D00F0DDF9381A02D1DF
:10029000295D0029F0D1BDE8F081F0B480EA0102C7
:1002A000D40F4200B2EB410F02D20246084611467B
:1002B0004A0042D0C30DDDB2C1F3C752AD1A202DA2
:1002C00035DAC1F3160141F4000204B15242C5F11E
:1002D000200602FA06F12A411044B3EBD05F23D086
:1002E000C4B1012DA0EBC35009DCF0BC4FF00042BB
:1002F00002EAC352DBB200F5000000F002BA40008F
:1003000000F1807000EBC350A0F1807040EAD17022
:10031000490009E0490841EAC071A0EBC35000F56B
:100320000000400800EBC350F0BC00F0E1B96142AE
:10033000012202EB4101001BF6E7F0BC704781F09F
:100340000041AAE780F00040A7E780EA010210B56B
:1003500002F00043400022D04A001FD0010E01EB02
:100360001261C0F35600C2F3560240F4000042F49A
:100370000002A0FB022000047F39140400D0401CBE
:1003800050EA124001D44000491EC2B20C0604EBF0
:10039000D010401C4008802A02D003E0002010BD8D
:1003A00020F00100002900DA0020184310BD30B40D
:1003B00080EA010202F0004530F0004221F00040E6
:1003C00013D090B1C30DD40DC2F31601C0F31600C3
:1003D000E41A41F4000140F400027D34914201D35B
:1003E000641C00E04900002C02DA30BC0020704799
:1003F0004FF400000023914201D3891A03434008BF
:100400004FEA4101F7D151B1914202D14FF0004181
:1004100005E002D24FF0010101E06FF0010103EBB2
:10042000C450284430BC00F063B9420005D0C0F38A
:10043000C7525242914201DC0020704700EBC1508C
:1004400070472DE9F04D81EA030404F0004B21F0E0
:10045000004514464FF0000A23F0004150EA05021F
:1004600020D054EA01021DD0C5F30A570246C5F355
:100470001303C1F31300C1F30A5640F4801543F48B
:100480008013A7EB0608101BD64608F2FD3873EB65
:10049000050002D308F1010801E092185B41B8F1B0
:1004A000000F03DA00200146BDE8F08D00204FF474
:1004B0008011064684460EE0171B73EB050705D333
:1004C000121B63EB050306434CEA010C49084FEA93
:1004D000300092185B4150EA0107EDD152EA030067
:1004E00012D082EA040083EA0501084305D0101BFC
:1004F000AB4106D20122002306E000224FF0004368
:1005000002E06FF0010253101AEB06004CEB0851A9
:1005100010EB0A0041EB0B01BDE8F04D00F01FB9F4
:10052000C10F80EAE0700844CA079623002100F05A
:10053000E8B820F00040C10DC0F3160040F4000000
:100540007F2901DA00207047962903DCC1F196016A
:10055000C840704796398840704700F0004230F03C
:1005600000400AD0C10D01F56071C0F3160042EAE7
:100570000151C208400711437047002001467047EF
:1005800001F0004330B421F0004150EA010206D0EE
:100590000A0DA2F56072C1F31301002A02DC30BC1F
:1005A00000207047440F44EAC104C100E01830BC89
:1005B00000EBC25000F09CB830B50B46014600205D
:1005C0002022012409E021FA02F59D4205D303FA15
:1005D00002F5491B04FA02F52844151EA2F1010296
:1005E000F1DC30BD2DE9F05F0546002092469B46C8
:1005F00088460646814640241BE028464146474639
:100600002246FFF7FDFD53465A46C01A914110D3CA
:1006100011461846224600F0B7FA2D1A67EB01087A
:100620004F4622460120002100F0AEFA17EB0009E8
:100630004E41201EA4F10104DFDC484631462A4623
:100640004346BDE8F09FA0F14101192900D82030B0
:10065000704700000FB4002300B589B00CA90091C9
:100660000B996FF00042CB601E4B06931E4B079315
:100670000423CDE901321D4A089202466B46002050
:1006800000F03CFB09B05DF814FB70B586B006467F
:100690004FF0FF300091CDE90101002015460C46D6
:1006A00004903246694604A8FFF7D4FF0246049836
:1006B000211825B108B1084600E0204628600498BA
:1006C00000280DD0002A02DD0098884208D0081BBF
:1006D0000094CDE901043246694604A8FFF7BAFF49
:1006E00006B070BD350F0008530F0008CB0B000893
:1006F0000029A8BF7047401C490008BF20F0010036
:10070000704710B4B0FA80FC00FA0CF050EA010413
:1007100004BF10BC704749B1CCF1200421FA04F4A5
:1007200011FA0CF118BF012121430843A3EB0C017E
:10073000CB1D4FEA00614FEA102042BF002010BCE1
:10074000704700EBC35010440029A4BF10BC704791
:10075000401C490008BF20F0010010BC704710B5D4
:10076000141E73F1000408DA401C41F100019218D4
:100770005B411A4301D120F0010010BD2DE9F04D7D
:1007800092469B4611B1B1FA81F202E0B0FA80F2D2
:100790002032904600F0F8F904460F4640EA0A007D
:1007A00041EA0B0153465A46084313D0114653EA17
:1007B000010019D0C8F140025046FFF721FD05465F
:1007C0000E4650465946424600F0DEF9084305D031
:1007D000012004E020463946BDE8F08D00200543A5
:1007E00046EAE0762C4337430A986305E40AA0EB17
:1007F00008000022FD0A44EA47540A3002D50020CE
:100800000146E9E7010510196941DDE908450019CC
:100810006941BDE8F04DA2E72DE9FE4F804681EA2F
:100820000300C00F0C46009021F0004123F000456A
:10083000B8EB0200A94105D24046214690461C462D
:100840000B46024623F00040104347D0270DC7F364
:100850000A00C3F30A510290401A019040286BDA53
:10086000C3F3130040F4801B0098924620B100238C
:10087000D2EB030A63EB0B0B01985946C0F140021F
:10088000504600F081F906460D4650465946019AF9
:1008900000F089F910EB08006141002487EA115249
:1008A00084EAE7731A4340D0009A62B3019A012A9E
:1008B0004FEA075215DC001B61EB02014FF00042CA
:1008C00002EA0752CDE90042001C41F58011324690
:1008D0002B46FFF753FF03B0BDE8F08F404621469B
:1008E000F9E7001B61EB0201001C41F580130018C1
:1008F0005B412018A2F5001747EB030140EAD570D1
:10090000B6196D4111E06D084FEA360645EAC0752B
:100910004FEA0752001B61EB0201001C41F58011F8
:1009200049084FEA30000019514132462B4603B0C6
:10093000BDE8F04FFFF713BF0098012240000023ED
:10094000D0EB020263EBE073009821464FEAE074BB
:10095000B8EB000061EB0401E9E783F000435BE7DB
:1009600081F0004158E72DE9FE4F81EA030404F0CD
:10097000004421F0004100944FF0000B23F00043AD
:1009800050EA01045ED052EA03045BD0C3F30A5478
:10099000C1F30A552C44A4F2F3340194A0FB025491
:1009A000C1F3130141F48011C3F3130343F4801323
:1009B00001FB024400FB034E840A970A44EA815477
:1009C00047EA8357A4FB076802958D0A05FB078554
:1009D0004FEA932C04FB0C542705029D4FEA06585E
:1009E00047EA1637B5EB08056EEB070C870E920E3B
:1009F00047EA811742EA8312A7FB0201B6EB0B011B
:100A000064EB00042B0D43EA0C335E1844EB1C50DE
:100A1000DA465146E7FB0201C5F313044FEA0B33F4
:100A200043EA14534FEA0432019C43EA0603A4F15B
:100A30000C040294009CCDE900B4FFF79FFE03B0C4
:100A4000BDE8F08F00200146F9E700002DE9F041F4
:100A5000054621F000400C46284309D0C4F30A5053
:100A600040F23341884205DD28462146BDE8F08149
:100A70002846FBE740F2FE31884210DC0CDB4FEAEF
:100A8000043040EA155050EA053105D0104804F012
:100A9000004101430020E9E700200146E6E7A0F21B
:100AA00033404642C6F140022846214600F06CF829
:100AB00007468846284621463246FFF7A1FB4346B3
:100AC0003A46FFF74CFE3246BDE8F04100F05CB814
:100AD0000000F03FC1F30A52C1F3130140F2FF33AB
:100AE00041F480119A4202DA00200146704740F238
:100AF00033439A42A2F2334202DC5242FFF780BBF8
:100B000000F042B830B5041E71F1000404DB4FF070
:100B10000044404264EB0101141E73F1000405DB44
:100B20001C464FF00043524263EB04038B4208BF64
:100B3000824230BD30B5041E71F1000404DB4FF079
:100B40000044404264EB0101141E73F1000405DB14
:100B50001C464FF00043524263EB0403994208BF26
:100B6000904230BD064C074D06E0E06840F00103BE
:100B700094E8070098471034AC42F6D3FFF7DCFA4C
:100B8000A4630008C4630008202A04DB203A00FAAA
:100B900002F1002070479140C2F1200320FA03F3D4
:100BA000194390407047202A06DBCB17203A41FAC0
:100BB00002F043EAE07306E041FA02F3D040C2F1EA
:100BC00020029140084319467047C0B24FF4F051DB
:100BD00000F0D0B92DE9FF4F087883B09946FF287F
:100BE00005D0491C2D2804D00024002008E0002056
:100BF0000BE00124F9E700EB800003EB4000491C07
:100C00000B78FF2BF7D104B14042002302931478F4
:100C100019461D462D2C01D02B2C04D1521C2D2CF5
:100C200013D000240294AA461478FF2C0FD00A2572
:100C3000A3FB057801FB05814FF0000C03FB0C11B1
:100C4000521CE3194AEB0101EEE70124EAE7814473
:100C500053EA010002D019F5C87F06DA0398002193
:100C6000C0E9001107B0BDE8F08F0025AE4E2F4659
:100C7000DFF8B882184600F091F9CDE90001B9F12A
:100C8000000002DAC9F1000400E004460023A74A8C
:100C90001AEB030B42EB045A12E0E00707D02A4696
:100CA000334638464146FFF75EFE074688462A46E9
:100CB000334610461946FFF756FE05460E466410A9
:100CC000002CEAD1DDE90001B9F1000F5A46534684
:100CD00006DAFFF7B6FB3A464346FFF7B2FB05E0FC
:100CE000FFF741FE3A464346FFF73DFE029A0AB13E
:100CF00081F00041039AC2E90001B3E72DE9FF4FFB
:100D00001F468DB0D7E901464FF0FF382E204546EB
:100D10004FF000090B90B9696D1C0E988847396A2D
:100D2000824688470028F6D1BAF1FF3F0AD024F462
:100D3000D064002E11DDBAF12B0F08D0BAF12D0FBF
:100D40000BD102E0404611B08DE744F48064B969EC
:100D50006D1C0E9888478246761E6946600501D54F
:100D60002D2000E02B208DF8000001F1010B0DF18A
:100D7000200809E0B9696D1C0E98884782460F98D3
:100D800044F40074761E0560002E02DDBAF1300FC7
:100D9000F0D00B998A453ED144F0800406E00F99CB
:100DA000681CA9F1010944F400740860B9696D1C5C
:100DB000761E0E98884782463028F0D02BE00B999B
:100DC0008A4505D1200603D444F08004761E18E03D
:100DD000504602F01DFC08B30DF11301761E44F4D9
:100DE00000748B4508D2AAF130000BF8010B2006E5
:100DF00007D5A9F1010003E0200602D409F10100A2
:100E00008146A00502D50F99681C0860B9696D1C60
:100E10000E9888478246002ED1DC53E0002E51DD2B
:100E2000BAF1650F02D0BAF1450F4BD1A00549D5F3
:100E3000B9696D1C24F44074761E0E98884782466A
:100E4000002E0CDD2B2804D0BAF12D0F07D144F46D
:100E50008074B9696D1C0E9888478246761EE0053D
:100E600001D52D2100E02B2108F8011BCDF82C80A5
:100E700021E00DF12901761E44F4007488450CD25E
:100E8000AAF1300010F0FF0088F8000002D10B99A1
:100E9000884509D908F1010806E0E00501D5244894
:100EA00001E042F20F708146B9696D1C0E988847C7
:100EB00082460F980560002E04DD504602F0A8FB24
:100EC0000028D6D1F9690E988847FF208BF80000DA
:100ED00088F800000020069007904B466A4608A953
:100EE00006A8FFF777FEA00502D46FF001002AE7FD
:100EF00014F0240F0AD0E00714D1DDE90612386897
:100F0000031D3B600068C0E900120BE0DDE906014B
:100F1000FFF736FB0146E00704D13868021D3A604E
:100F20000068016028460EE7000014400000F03F12
:100F3000F1D8FFFF426842B1016811F8013B23B1CB
:100F4000521EC0E90012184670470121C160881E78
:100F5000704742685AB1C368016843B983688B42DD
:100F600005D0491E521CC0E90012002070474FF006
:100F7000FF3070477F2801D9002208E0064A02EBC3
:100F80005002C007127800D1120902F00F020120AE
:100F90009040084070470000C85E00080EB540F25F
:100FA000334202920022CDE900221346FFF7E6FB0E
:100FB00003B000BD70B58C1810F8015B15F0070385
:100FC00001D110F8013B2A1106D110F8012B03E0E2
:100FD00010F8016B01F8016B5B1EF9D12B0705D4EA
:100FE0000023521E0DD401F8013BFAE710F8013B33
:100FF000CB1A921C03E013F8015B01F8015B521E4F
:10100000F9D5A142D8D3002070BD00002DE9F041F0
:10101000114F002420F07F454FF400684FF48066A4
:1010200000223146384600F0DEFC15F4000F10D0E7
:1010300001224146384600F0D6FC012231463846AE
:1010400000F0D1FC641C6D00E4B2182CE8D3BDE8BC
:10105000F0810022EDE7000000140140F8B5002106
:10106000009180060F4C000B40F48000010C2060C2
:101070008DF80010010A8DF801108DF802000A4E5B
:101080004FF4007500222946304600F0ACFC206881
:10109000FFF7BCFF29463046BDE8F840012200F0CA
:1010A000A2BC0000780000200014014070B50B4C79
:1010B000000140F440100A4E4FF4007560600022B9
:1010C0002946304600F08FFC6068FFF79FFF2946F5
:1010D0003046BDE87040012200F085BC7800002059
:1010E0000014014070B50B4C000140F400100A4E92
:1010F0004FF40075A06000222946304600F073FCD2
:10110000A068FFF783FF29463046BDE87040012202
:1011100000F069BC780000200014014030B503469F
:10112000002013E01C78802214EA020500D001257B
:10113000B5EBD01F4FEA40604FEA106001D080F05D
:1011400007005208F0D1491EC9B25B1C0029E9D141
:1011500030BD0000F0B585B0002016460F46039064
:101160000246049004211F4800F03DFC00BF4020CF
:101170001D4C8DF80C0000BF94F851000228FBD0E4
:1011800002252B4601AA03A91748009501F030F863
:101190009DF80500010602D400F00F0000E0FF20DA
:1011A000307000BF00BF00BF42208DF80C0000BFB0
:1011B00094F851000228FBD0042301AA03A90A488D
:1011C000009501F015F89DF805009DF80610000443
:1011D00000EB01209DF807100844386000BF05B0FF
:1011E000F0BD0000000C0140400F00202DE9FF4140
:1011F0004FF000050C4606000095019502950395F9
:1012000019D0C4B1207800F03F0040F040008DF8C4
:101210000000B0680028A06800D0401C401CC2B28A
:101220003078694601F07CFD070006D4B0686E4650
:10123000012805D020E04FF0FF3004B0BDE8F08178
:10124000207802A900F03F0040F040008DF808002F
:10125000012003E0325C0A54401CC0B2A268921C18
:101260008242F7DC207A801CC1B202A8FFF756FF49
:1012700010B16FF00100E0E76560A1680120491C32
:1012800007E0626812026260335C401C1A44C0B21C
:1012900062608142F5DC3846CFE77CB505004FF04F
:1012A00000001C4600900346019005D001F03F006D
:1012B0008DF80000684607E04FF0FF307CBDE11A72
:1012C000425412125B1CDBB29C42F8DCA86838B1B5
:1012D000601CC1B26846FFF721FF0DF101016054A7
:1012E000A86808B1A41C00E0641CE2B22878694632
:1012F00001F088FD7CBD70B5044608680D460628DF
:1013000007D0E06828B12046216900F072F8002873
:1013100005DB29462046BDE87040FFF767BF70BD7A
:101320001CB50AA10400D1E90001CDE9000109D0F2
:1013300020780822694601F065FD2046216900F009
:1013400079F81CBD4FF0FF301CBD0000FFFFFFFF10
:10135000FFFFFFFFF8B51746060017D0B7B146F2FA
:10136000A8103061C6E900173046FFF7D9FF050025
:101370000ED4012000F028FA01200024C6F80C0049
:1013800007EB0410C168012903D00AE04FF0FF30D9
:10139000F8BD009190E80E00304600F06AF80500B4
:1013A0000DD4072C05D1304600F00BF8304600F084
:1013B00014F8641CE4B2292C01D2002DE0DA28468E
:1013C000F8BD002808D0416891F87410490701D58C
:1013D000012100E0002181607047002808D04168A9
:1013E00091F87410490601D5012100E00021C16087
:1013F00070472DE9F0410C46050003D06E6806F1F8
:10140000600712E04FF0FF30BDE8F0813946284612
:10141000FFF771FF0028F7DB96F8640040F38010B7
:10142000401C02D01CB10020EEE7641EEED16FF02C
:101430000200E9E770B50C4605004FF0000101D04D
:101440006E680DE04FF0FF3070BD31462846FFF763
:1014500052FF0028F8DB307940F30011491C01D11C
:10146000641EF2D20C4301D0002070BD6FF0020068
:1014700070BD2DE9F8430446089DC0680E46174626
:10148000984628B120462169FFF7B3FF002806DB04
:1014900043463A46314620460095FFF7FEFEBDE83A
:1014A000F883FEE77047FEE71CB5002000908DF83A
:1014B00004001248D0F8100100281ED101AA694684
:1014C0000F48FFF747FE9DF80440042C15D2009802
:1014D000FFF726F80B49FEF738FF6FF01701FEF70C
:1014E000A4FF0949FEF72BFF0121FEF79EFF044AE6
:1014F00004EB8401783A42F831001CBD008021429F
:1015000094050020000020400000A03F704770B507
:10151000040003D094F8200010B104E0012070BD55
:10152000204600F081F82068016821F00201016086
:1015300000F05EFA0546052604E000F059FA401B6B
:101540000A2811D8206840688007F6D4206801680E
:1015500041F00101016000F04BFA05460BE000F09C
:1015600047FA401B0A2806D9606A40F400306062DE
:1015700084F82060D2E720684068C007EFD0207E62
:101580000128206801683DD021F080010160607E63
:1015900001282068016838D021F040010160A07E58
:1015A00001282068016833D021F020010160E07E2D
:1015B0000128206801682ED041F010010160207FD1
:1015C00001282068016829D021F008010160607FAE
:1015D00001282068016824D021F004010160D4E9C9
:1015E00002010843D4E90412114308436168491E0B
:1015F00008432168C86100206062012084F820004F
:10160000002070BD41F08001C0E741F04001C5E716
:1016100041F02001CAE721F01001CFE741F00801B5
:10162000D4E741F00401D9E710B586B0002100915C
:1016300001910291039100681349884222D1134815
:10164000C16941F00071C161C16901F0007104918B
:10165000816941F00401816180690D4C00F0040052
:1016600004904FF4006000906946204600F0BEF8F8
:10167000A0140090022001900320039069462046A8
:1016800000F0B4F806B010BD006400400010024045
:101690000008014070B54379012B1AD00124447130
:1016A00002230371D1E9003105680B43296840F634
:1016B000FE769640B14393401943296001680B6858
:1016C000C0259540AB430B60047100214171084671
:1016D00070BD022070BD70B5040003D020790025D4
:1016E00010B105E0012070BD6571204600F008F8DA
:1016F00002202071256101202071002070BD0000B2
:1017000000B585B00021009101910291039100681C
:101710000E49884218D10E48C16941F00051C1619B
:10172000C16901F000510491816941F004018161B6
:101730008069694600F004000490102000900320A6
:101740000190044800F052F805B000BD007400405C
:10175000001002400008014018B5046800940068B9
:10176000104421B1143000900360002018BD0830EF
:10177000F9E730B54279012A12D0012242710223E1
:10178000037103681D6802FA01F425431D600029F6
:1017900001680B6806D0C3F383430F2B0AD00DE01A
:1017A000022030BDC3F383030F2B07D14B6843F0F6
:1017B000010302E04B6843F002034B600271002119
:1017C0004171084630BD000070B5044600F010F9C4
:1017D0000546601C02D004480078044400F008F973
:1017E000401BA042FAD370BD280400202DE9F84F19
:1017F000DFF8B8A100220AF1040B144601274FF0CC
:101800000F090BF1040E00BF0B6807FA04F52B401B
:10181000AB4274D1DFF898C14E68A6EB0C08664560
:101820002BD00DDC032E34D005DC36B3012E19D0BD
:10183000022E2FD11BE0112E16D0122E2AD119E024
:10184000B8F5881F19D006DCB8F5803F15D0B8F57B
:10185000801F1FD111E0B8F5001F0ED0B8F5041F8E
:1018600018D10AE0CA6815E0CA68121D12E0CA68F9
:1018700008320FE0CA680C320CE08A682AB1012AEB
:101880004FF0080203D0456104E0042202E0056144
:1018900000E00022FF2B01D8064601E000F104061B
:1018A0004FEA840501D9A5F12005D6F800C009FA50
:1018B00005F82CEA080C02FA05F54CEA050CC6F806
:1018C00000C04D68ED006AD53A4DAE6946F001069C
:1018D000AE61AD6924F0030605F001050095364DB3
:1018E00006EB050CDCF80850A6074FEA167809FA53
:1018F00008F6B543314EB04202D100261AE04EE060
:101900002F4EB04201D1012614E02E4EB04201D13B
:1019100002260FE02C4EB04201D103260AE02B4EE6
:10192000B04201D1042605E0294EB04201D105267E
:1019300000E0062606FA08F62E43CCF808604D684B
:10194000DAF80060ED03554601D51E4300E09E43E2
:101950002E604D68AD0305D5DBF800601E43CBF863
:10196000006004E0DBF800509D43CBF800504D6868
:10197000DEF80060ED02754601D51E4300E09E438F
:101980002E604D68AD0205D5084D0C352E681E43FE
:101990002E6004E0054E0C3635689D433560641CAE
:1019A000102CFFF431AFBDE8F88F000000040140B7
:1019B000000011100010024000000140000801402A
:1019C000000C0140001001400014014000180140CB
:1019D000001C01408068084000D001207047C268A8
:1019E0004A40C26070470AB1016170470904FBE7D1
:1019F0000148806870470000280400200248816880
:101A0000027811448160704728040020074810B50F
:101A1000016841F010010160032000F09DF80020F2
:101A200000F006F800F03EF8002010BD0020024053
:101A300000B5014687B00022362000F06DF8362050
:101A400000F05FF81348C16941F01001C161C0693D
:101A500005A900F010000690684600F057F900F064
:101A600075F90D494000B0FBF1F10D480B4A491ED4
:101A70000260416040F2E7320021C0E90321816049
:101A800000F0A4FC10B1012007B000BD044800F034
:101A9000B9FCF9E70010024040420F00001000407E
:101AA000D81000200F4808B5816941F0010181611B
:101AB000816901F001010091C16941F08051C1616A
:101AC000C069002200F0805000900F21901E00F0AD
:101AD00023F80548416821F0E06141F00071416060
:101AE00008BD0000001002400000014000F01F028D
:101AF000012191404009800000F1E020C0F88011F0
:101B0000704700F01F02012191404009800000F160
:101B1000E020C0F800117047F0B40E4B1B680C4673
:101B2000C3F30223C3F10705042D00D90425191DB1
:101B3000072901D2002300E0DB1E012606FA05F189
:101B4000491E214099409E40761E16403143F0BC0C
:101B500001F0BAB80CED00E0064900F00702086891
:101B60004FF6FF03184040EA0220034A1043086082
:101B7000704700000CED00E00000FA05BFF34F8F46
:101B800005480168054A01F4E06111430160BFF3B3
:101B90004F8F00BFFDE700000CED00E00400FA05E8
:101BA0002DE9F047DFF8548105460E46D8F80000CD
:101BB00000F00700B0420CD2D8F8001021F0070165
:101BC0003143C8F80010D8F8000000F00700B04218
:101BD0006FD128684A4C810712D5400703D5606849
:101BE00040F4E06060602878000703D5606840F446
:101BF000605060606068A96820F0F0000843606091
:101C00002878C00744D06868012816D021680228C7
:101C100016D0890700294CDA616821F003010143DD
:101C20006160FFF7E5FE6968074641F288300129E7
:101C30000ED00229814618D026E021688903E9E701
:101C40008901E7E7FFF7D4FEC11B494501D918E038
:101C500081466068C0F381000128F3D118E000BF1D
:101C6000FFF7C6FEC11B49450BD86068C0F3810071
:101C70000228F5D10CE000BFFFF7BAFEC11B4945B1
:101C800002D90320BDE8F087606810F00C0FF3D193
:101C9000D8F80010404601F00701B1420BD90168A5
:101CA00021F0070131430160006800F00700B042F5
:101CB00001D00120E6E72878400705D56068E9688B
:101CC00020F4E060084360602878000706D560686B
:101CD000296920F4605040EAC100606000F056F8C5
:101CE0006168084AC1F30311515CC84006490860A5
:101CF0000020FFF79DFE0020C4E700000020024006
:101D000000100240405E0008000000200F22026028
:101D10000C4A536803F003034360536803F0F00375
:101D20008360536803F4E063C36052684FF4E06378
:101D300003EAD20202610448006800F0070008606C
:101D4000704700000010024000200240044805498E
:101D500000684968044AC1F30221515CC8407047D9
:101D60000000002000100240505E000804480549B1
:101D700000684968044AC1F3C221515CC8407047F9
:101D80000000002000100240505E000812A185B043
:101D90000FC98DE80F0014A0144A00680490516820
:101DA000134801F00C03042B10D0082B0ED1C1F303
:101DB0008343C9031DF803000AD5516804AAC1F37F
:101DC0004041515C0A4A5043B0FBF1F005B0704706
:101DD00008494843FAE7000002030405060708091A
:101DE0000A0B0C0D0E0F1010010200000010024033
:101DF00000127A0000093D002DE9F84F04460078F2
:101E0000B94DC00748D06868C0F38100012807D0E9
:101E10006868C0F38100022809D16868C00306D54C
:101E20002868800338D5606800286FD034E0606887
:101E3000B0F5803F0BD010B1B0F5A02F11D02868BD
:101E400020F480302860286820F4802002E0286890
:101E500040F480302860606888B1FFF7C9FD06460D
:101E600009E0286840F480202860F0E7FFF7C0FD13
:101E7000801B642875D828688003F7D50CE0FFF72D
:101E8000B7FD064605E000BFFFF7B2FD801B6428E2
:101E9000F0D828688003F7D42078944E80074FF05C
:101EA00001094FF000083BD5686810F00C0F07D00F
:101EB0006868C0F38100022809D16868C00306D4AD
:101EC0002868800714D5206901281FD110E02069F7
:101ED000B0B1C6F80090FFF78BFD074605E000BFE4
:101EE000FFF786FDC01B0228C4D828688007F7D5F5
:101EF0002868616920F0F80040EAC10028600FE01E
:101F0000C6F80080FFF774FD074606E0E9E000BF71
:101F1000FFF76EFDC01B022823D828688007F7D47E
:101F2000207800072CD57248A169D9B1C0F800907B
:101F3000FFF75EFD074604E0FFF75AFDC01B0228CD
:101F40000FD8686A8007F7D56A484FF4FA510068DD
:101F5000B0FBF1F0009000BF0098411E0091FAD252
:101F60000EE080E0C0F80080FFF742FD074604E085
:101F7000FFF73EFDC01B022875D8686A8007F7D4BA
:101F80002078400760D5E8690027C00008D4E869D8
:101F900040F08050E861E869012700F0805000902F
:101FA00055480168C90513D40168834641F480711E
:101FB0000160FFF71DFD824606E000BFFFF718FD38
:101FC000A0EB0A0064284ED8DBF80000C005F5D568
:101FD000E06801280AD008B1052813D0286A20F04B
:101FE00001002862286A20F0040002E0286A40F01C
:101FF00001002862E06841F2883B98B1FFF7F8FCE5
:1020000082460BE0286A40F004002862EEE700BF39
:10201000FFF7EEFCA0EB0A0159455AD8286A800761
:10202000F6D50CE0FFF7E4FC824605E0FFF7E0FCA4
:10203000A0EB0A0159454CD8286A8007F6D41FB195
:10204000E86920F08050E861E06988B36968C1F30D
:102050008101022945D00228C6F8608004D0FFF72C
:10206000C7FC044638E034E0FFF7C2FC074604E052
:10207000FFF7BEFCC01B02282BD828688001F7D4CC
:10208000206AB0F5803F05D16868A16820F400306F
:1020900008436860D4E908010843696821F47411B1
:1020A00008436860C6F86090FFF7A2FC044606E0AB
:1020B00015E000BFFFF79CFC001B022809D8286828
:1020C0008001F7D50BE000BFFFF792FC001B022850
:1020D00002D90320BDE8F88F28688001F4D40020DD
:1020E000F8E70120F6E7000000100240000042423D
:1020F00080044242000000200070004070B50400DF
:1021000005D00025A56294F8510010B104E001202B
:1021100070BD204600F034F8022084F85100206899
:10212000016821F040010160D4E901010843D4E9CC
:1021300003121143084361690843218B01F40071C4
:102140000843E1690843216A0843A16A08432168FA
:102150000860A069042101EA1040616A084321680F
:1021600048602168E06A08612068C16921F4006163
:10217000C1616565012084F85100002070BD000038
:1021800030B585B000240094019402940394006853
:102190001449884223D11448C16941F40041C16106
:1021A000C16901F400410491816941F00801816134
:1021B00080690E4D00F00800049028200090022055
:1021C00001900320039069462846FFF70FFB10207B
:1021D000CDE90004694628460294FFF707FB05B0E5
:1021E00030BD0000003C004000100240000C0140E7
:1021F0002DE9F84F044690F8500000260A9F9A46B1
:1022000093460D464FF0010801280ED0012084F8B6
:102210005000FFF7EDFB814694F8510061680128FA
:102220000CD0B1F5827F07D102E00220BDE8F88F23
:10223000A16809B9042801D00226BDE055B1BBF15F
:10224000000F07D0BAF1000F04D094F85100012814
:1022500002D004E00126AFE0052084F85100002000
:102260006065C4F838B0A4F83EA0A4F83CA025638B
:10227000A4F836A0A4F834A0206460642068016843
:10228000490603D4016841F040010160E068B0F5FF
:10229000006F606804D0E8B3E08E01283BD06AE0AC
:1022A00010B1E08E01282ED1216835F8020BC860EC
:1022B000E08E401EE08626E0B8F1000F0DD0E08EE3
:1022C00058B120688168890707D535F8021BC160BD
:1022D000E08E401EE0864FF00008E08F58B1206885
:1022E0008168C90707D0C0682BF8020BE08F401E39
:1022F000E0874FF00108781C05D0FFF779FBA0EBD1
:102300000900B84246D2E08E0028D5D1E08F0028DF
:10231000D2D136E0FFE7216815F8010B0873E08E93
:10232000401EE08627E000BFB8F1000F0DD0E08E20
:1023300058B120688168890707D515F8011B01731A
:10234000E08E401EE0864FF00008E08F58B1206814
:102350008168C90707D0C0680BF8010BE08F401EE9
:10236000E0874FF00108781C05D0FFF741FBA0EB98
:102370000900B8420ED2E08E0028D5D1E08F0028A7
:10238000D2D13B46012202212046CDF8009000F038
:10239000EDFC08B103260FE04A463946204600F01E
:1023A000AFFC18B101262020606505E0A06818B9CF
:1023B0002068C16880680090012084F851000020E6
:1023C00084F85000304631E77047704710B504007C
:1023D00003D094F83D0010B107E0012010BD0020AB
:1023E00084F83C00204600F00CF8022084F83D0000
:1023F000211D206800F092FE012084F83D0000209D
:1024000010BD70470168CA6842F00102CA600068E6
:10241000016841F00101016000207047704770B50C
:102420000446006801694FF00005C943890715D4C7
:10243000C168C943890711D4E91E016101202077D1
:10244000206880698007204602D0FFF7E7FF04E09C
:1024500000F098F8204600F096F82577206801698A
:10246000C943490717D4C168C943490713D46FF05A
:1024700004010161022020772068806910F4407F08
:10248000204602D0FFF7CAFF04E000F07BF82046A8
:1024900000F079F8257720680169C943090716D447
:1024A000C168C943090712D46FF008010161042013
:1024B00020772068C0698007204602D0FFF7AEFF72
:1024C00004E000F05FF8204600F05DF82577206812
:1024D0000169C943C90617D4C168C943C90613D4E1
:1024E0006FF010010161082020772068C06910F4A6
:1024F000407F204602D0FFF791FF04E000F042F851
:10250000204600F040F8257720680169C943C907D3
:1025100008D1C168C943C90704D1891E0161204699
:1025200000F032F820680169C943090609D4C1687E
:10253000C943090605D46FF0800101612046FFF709
:1025400043FF20680169C943490609D4C168C943EA
:10255000490605D46FF040010161204600F01EF8E5
:1025600020680169C94389060BD4C168C94389063B
:1025700007D46FF0200101612046BDE87040FFF7ED
:1025800024BF70BD7047704700680349884201D17D
:10259000FFF734BA704700000010004070474FF456
:1025A000E13000F0A1BB70B5040004D094F839000C
:1025B000002510B106E0012070BD84F83850204697
:1025C00000F022F8242084F839002068C16821F442
:1025D0000051C160204600F009FE2068016921F425
:1025E000904101612068416921F02A014161206820
:1025F000C16841F40051C160E563202084F83900CE
:1026000084F83A00002070BDF0B585B00024009435
:10261000019402940394D0F800C06548634F0515F7
:1026200002210322634BC614BC4516D1C76947F487
:102630000027C761C76907F400270497876947F037
:10264000100787618069CDE9005100F01000CDE9E5
:10265000032069461D4618469FE0DFF85CE1574FAE
:10266000F44529D1C56945F48015C561C56905F4EE
:1026700080150495856945F010058561856905F02B
:1026800010050495856945F02005856180690392F0
:1026900000F020000490B814CDE900016946184606
:1026A000FFF7A4F80420CDE90004694638460294F7
:1026B000FFF79CF805B0F0BD414B9C4529D18369DB
:1026C00043F480438361836903F480430493836903
:1026D00043F00403836180693A4E00F004000490E3
:1026E0004FF40070CDE90001039269463046FFF7D0
:1026F0007DF8CDE90054694630460294FFF776F83C
:10270000002205212520FFF707FA2520FFF7F9F918
:10271000D0E72D4B9C4527D1C36943F40033C361F7
:10272000C36903F400330493836943F02003836196
:102730008069039200F0200004902020CDE9000180
:1027400069463846FFF752F84020CDE90004694653
:1027500038460294FFF74AF81C48416841F0E061AE
:1027600041F008014160A5E7194B9C45A2D1C3691E
:1027700043F48023C361C36903F480230493836912
:1027800043F0080383618069CDE9005100F008003F
:10279000CDE903200F4D69462846FFF727F8CDE91C
:1027A000006469462846029482E70000004C00401D
:1027B0000010024000100140005000400014014091
:1027C0000038014000080140004400400000014082
:1027D00000480040000C01402DE9F843044690F801
:1027E00039001F4616460D46202850D1A5B19EB18E
:1027F00094F8380001284AD0012084F838004FF0BE
:102800000008C4F83C80212084F83900FFF7F0F874
:10281000A6848146E68426E00120BDE8F883E08CAA
:10282000401EE084A0684B46B0F5805F4FF0000288
:102830004FF080012046009703D000F08FFDE8B9EB
:102840000DE000F08BFDC8B928882168C0F30800AE
:102850004860206908B16D1C05E0AD1C03E02168EB
:1028600015F8010B4860E08C0028D8D14B460022B7
:1028700040212046009700F071FD08B10320CCE70D
:10288000202084F8390084F838800020C5E7022031
:10289000C3E7FEE7002002F0CDFE002001F0A8FF14
:1028A000002002F0FFF9024C206803F009F8FBE772
:1028B000600000200D4810B50B49016010214160F7
:1028C00000218160C16001614161017641768176BC
:1028D000C17601774177FEF71AFE002803D0BDE8E4
:1028E0001040FEF7E0BD10BD00640040040F002062
:1028F0001CB500240C4900940A480194086008465D
:10290000FEF7E9FE08B1FEF7CEFD0094002269460D
:1029100005480194FEF7BEFE002801D0FEF7C3FD76
:102920001CBD0000007400402C0F002000B585B0D5
:10293000142207496846FDF773FC0021684601F040
:10294000DEFF04490860022001F026FF05B000BD4B
:10295000B45E0008340400202DE9F04F85B0002457
:102960007A480094019402940394816941F04001F3
:102970008161816901F040010491816941F0100198
:102980008161816901F010010491816941F00401C4
:102990008161816901F004010491816941F00801BC
:1029A0008161816901F008010491816941F0200190
:1029B00081618069DFF8989100F020000490002286
:1029C0003F214846FFF70FF8DFF888A10022EE21EB
:1029D0005046FFF708F8002243F2C7115E48FFF7A0
:1029E00002F8DFF878B14EF68038002241465846AA
:1029F000FEF7F9FF002248F698615948FEF7F3FF09
:102A00007F20CDE90004694658460294FEF7EEFEA9
:102A10004FF40050CDE90004694648460294FEF7A1
:102A2000E5FE4CF2C0300325CDE900056946484675
:102A3000FEF7DCFE0D200126CDE90006694648467A
:102A4000CDE90245FEF7D2FE32200227CDE900068D
:102A5000CDE9024769464846FEF7C8FE48F2011034
:102A6000CDE9000569465046FEF7C0FE8E20CDE94F
:102A70000006CDE9024769465046FEF7B7FE6020E2
:102A8000CDE9000669465046CDE90245FEF7AEFEA7
:102A900043F20700CDE90006CDE9024769462E481A
:102AA000FEF7A4FECDE9008669465846CDE9024509
:102AB000FEF79CFE4FF4A050CDE90005694658464C
:102AC000FEF794FEA8038DE8510069462248FEF700
:102AD0008DFE3002CDE90004694621480294FEF7DC
:102AE00085FE40F69860CDE9000669461C48CDE9B0
:102AF0000245FEF77BFE4FF4E0408DE89100694609
:102B00001748FEF773FEF003CDE90006CDE9024752
:102B100069461348FEF76AFE00956946104801951C
:102B2000FEF764FE4FF4E070CDE9000669460A48FE
:102B3000CDE90245FEF75AFE7002CDE9000569466F
:102B40000548FEF753FE05B0BDE8F08F00100240C7
:102B50000010014000080140000C01400018014035
:102B600000140140104810B50E4901604FF4827105
:102B70004160002102228160C0E90312012242610A
:102B80005202C0E906210162416281620A21C162EA
:102B9000FFF7B4FA002803D0BDE81040FEF783BC6D
:102BA00010BD0000003C0040400F00200C4810B554
:102BB0000A4901604FF4E1314160002181600C223B
:102BC000C160C0E904128161C161FFF7ECFC00281B
:102BD00003D0BDE81040FEF766BC10BD004C0040BD
:102BE000980F00200C4810B50A4901604FF4E131FC
:102BF0004160002181600C22C160C0E90412816142
:102C0000C161FFF7D0FC002803D0BDE81040FEF7FB
:102C10004ABC10BD00500040D80F00200C4810B531
:102C20000A4901604FF4E1314160002181600C22CA
:102C3000C160C0E904128161C161FFF7B4FC0028E2
:102C400003D0BDE81040FEF72EBC10BD0038014097
:102C5000181000200C4810B50A4901604FF4E1310A
:102C60004160002181600C22C160C0E904128161D1
:102C7000C161FFF798FC002803D0BDE81040FEF7C3
:102C800012BC10BD00440040581000200C4810B584
:102C90000A4901604FF4E1314160002181600C225A
:102CA000C160C0E904128161C161FFF77CFC0028AA
:102CB00003D0BDE81040FEF7F6BB10BD0048004051
:102CC00098100020FEE770470907090E002806DA71
:102CD00000F00F0000F1E02080F8141D704700F1B3
:102CE000E02080F8001470470448016841F48071C6
:102CF0000160016841F02001016070470C3801401B
:102D000038B50B46009204460022802100F02EF8D0
:102D1000002804D0606D40F020006065032038BDBD
:102D2000FEB508780F4D16460C468DF804000022BB
:102D300004212846FEF757FE0B4800BF90F85110BB
:102D40000229FBD0022000903346224601A9064802
:102D5000FFF74EFA012204212846FEF744FE002028
:102D6000FEBD0000000C0140400F00202DE9F041A5
:102D70001D4617460E460446DDF8188035E0681CEF
:102D800033D02DB1FEF734FEA0EB0800A8422CD3BF
:102D90002068416821F0E00141606068B0F5827F01
:102DA0000BD1A068B0F5004F02D0B0F5806F04D110
:102DB0002068016821F040010160A06AB0F5005F61
:102DC0000AD1206801684DF6FF7211400160206849
:102DD000016841F400510160012084F85100002095
:102DE00084F850000320BDE8F0812068806836EA4E
:102DF000000004D00020B842C1D10020F3E7012038
:102E0000F9E70000FEB50E4C15460E4600220421DF
:102E10002046FEF7E8FD0B4890F851100229FBD040
:102E2000022000902B4601AA31460648FFF7E0F940
:102E3000012204212046FEF7D6FD0020FEBD000041
:102E4000000C0140400F002070B5054645F6FF76A6
:102E5000304600F04DF8002812D10A4C206940F0AD
:102E6000020020616561206940F040002061304629
:102E700000F03EF8012803D0216921F00201216110
:102E800070BD0000002002400748C068C10701D0A3
:102E900001207047410701D502207047C00601D5C7
:102EA000032070470020704700200240024801695B
:102EB00041F08001016170470020024010B50023FD
:102EC00006E000BF30F8024B21F813405B1C9BB2B8
:102ED0009342F7D310BD0000034802494160034903
:102EE000416070472301674500200240AB89EFCD68
:102EF00010B50446FFF7C8FF012803D0002C00D10D
:102F0000FF2010BD0120FEF75FFC641E2404240C8A
:102F1000F0D1F5E72DE9F05F1546A0F100628A4691
:102F20008346B2F5802F53D2FFF7D6FFC2F349068E
:102F3000D70AC6F58064A54200D82C46DFF89490E5
:102F40004FF0006000EBC72080464FF480622149BB
:102F5000FFF7B4FF00204FF6FF7106E0331839F891
:102F600013208A4203D1401C80B2A042F6D3A04273
:102F700026D24046FFF768FF0020494607E000BF21
:102F80003AF810208319401C21F8132080B2A04287
:102F9000F6D3104940464FF4806200BF00F036F887
:102FA000A54211D0281B0AEB440A0BEB440B002668
:102FB00085B24FF480647F1CA542C1D82C46BFE780
:102FC000224651465846E9E7BDE8F05FFFF76EBF7D
:102FD000BDE8F09F0407002070B506460D46FF20AF
:102FE000FFF786FF00280ED1074C206940F0010052
:102FF00020613580FF20FFF77BFF012803D0216986
:1030000021F00101216170BD002002402DE9F04155
:1030100016460F460546002408E000BF37F8141096
:103020002846FFF7D9FF641CA4B2AD1CB442F5D307
:10303000BDE8F081012001F04FFCFBE710B5502006
:1030400080F31188BFF34F8FBFF36F8F02F032FE12
:1030500018B104494FF080500860002080F31188B7
:1030600010BD000004ED00E030B58FB028216846A7
:10307000FDF7EFF814210AA8FDF7EBF8092001216C
:1030800000904FF48030002404910691CDE90104B2
:103090000225CDE907504FF4E01009906846FEF78D
:1030A000ABFE00B1FEE70F20CDE90A054FF48060CA
:1030B000CDE90C4002210AA80E94FEF771FD00280C
:1030C00000D0FEE70FB030BD0D48016841F00101AE
:1030D000016041680B4A1140416001680A4A114091
:1030E0000160016821F480210160416821F4FE0142
:1030F00041604FF41F0181600449C00308607047BC
:10310000001002400000FFF8FFFFF6FE08ED00E0AF
:103110000148FFF784B90000D8100020F0B502681C
:103120001C4B1D4D1D4E1E4F1E4C4FF0804C9842A7
:1031300009D0A04207D0604505D0A84203D0B042D4
:1031400001D0B84204D122F0700E4A6842EA0E0261
:10315000984209D0A04207D0604505D0A84203D0CC
:10316000B04201D0B84203D122F44075CA682A4364
:1031700022F080054A692A4302608A68C2620A68AE
:103180008262984201D0A04201D109690163012104
:103190004161F0BD002C01400004004000080040E7
:1031A000000C0040003401400FB44FF4007130B502
:1031B000ADF5017D05466846FDF74BF86C4686AADD
:1031C0002046859900F034F9002201E0521CD2B269
:1031D00014F8010B0028F9D1FF2369462846FFF7B0
:1031E000FBFA0DF5017D30BC5DF814FB2DE9F041D3
:1031F000044600680169E26821F44051114301610D
:103200002169A0680843616908432168CA6841F2DE
:103210000C639A430243CA6020684169A26921F4A1
:103220004071114341614C4920686425322688422F
:103230003CD1FEF79BFD00EBC00101EB0010616883
:103240008900B0FBF1F7FEF791FD00EBC00101EB47
:1032500000106168B0468900B0FBF1F0B0FBF5F0FA
:103260006FF01801484307EB800106EB0110B0FB3B
:10327000F5F000F0F006FEF779FD00EBC00101EB80
:10328000001061688900B0FBF1F0B0FBF5F006EBCF
:103290000016FEF76BFD00EBC00101EB001061684A
:1032A0008900B0FBF1F7FEF761FD3BE0FEF74EFD54
:1032B00000EBC00101EB001061688900B0FBF1F781
:1032C000FEF744FD00EBC00101EB00106168B04661
:1032D0008900B0FBF1F0B0FBF5F06FF01801484346
:1032E00007EB800106EB0110B0FBF5F000F0F006F3
:1032F000FEF72CFD00EBC00101EB001061688900B6
:10330000B0FBF1F0B0FBF5F006EB0016FEF71EFD8A
:1033100000EBC00101EB001061688900B0FBF1F720
:10332000FEF714FD00EBC00101EB0010616889009D
:10333000B0FBF1F0B0FBF5F06FF01801484307EB7C
:10334000800108EB0110B0FBF5F0216800F00F00E0
:1033500030448860BDE8F081003801402DE9F0413B
:10336000984617460E460446069D1DE0681C1BD075
:103370002DB1FEF73DFBA0EB0800A84214D9206850
:10338000C16821F4D071C1602068416921F0010158
:103390004161202084F8390084F83A00002084F844
:1033A00038000320BDE8F0812068006836EA00009C
:1033B00004D00020B842D9D00020F3E70120F9E77B
:1033C00070B5002201211548FEF70DFB1448006876
:1033D00080060ED51248001D0068C2B2114801884F
:1033E0000B0406D44C044FF0000306D50A2A01D082
:1033F000038070BD41F400410DE00D2A09D00A4D53
:10340000C1F30D042A55491C89B201807F29EFD8E8
:1034100070BD41F48041018070BD0000001001408A
:1034200000380140740000209C040020FEE70000EA
:1034300037B514460846064B6A46214600F0F0F8B8
:1034400004466946002000F082FC20463EBD000094
:103450004F3D0008014800687047000098040020B4
:1034600002E008C8121F08C1002AFAD1704770474D
:10347000002001E001C1121F002AFBD170470000AB
:103480000149086070470000980400202DE9FF5FA3
:1034900082B00021DDE90430020DDDF840B00343C5
:1034A00018D044F61050A2F2FF324243151411987E
:1034B00001281FD0A5EB0B00401C5FEA000A4FF06B
:1034C00000064E4FDFF83891B046504615D5CAF188
:1034D000000413E0119801244AA3012801D16FEAE6
:1034E0000B010298119AC0E90031C0E9024206B00E
:1034F000BDE8F09FCBF10000DFE704460021404A21
:10350000491842EB0450CDE9001012E0E00707D063
:1035100032463B4640464946FDF725FA80468946F5
:1035200032463B4610461946FDF71DFA06460F4641
:103530006410002CEAD1DDE90401DDE90023BAF1D1
:10354000000F06DAFDF70FFA42464B46FDF70BFA7D
:1035500005E0FCF776FF42464B46FCF772FF044657
:103560000E460022284BFDF7E5FA03D84FF0FF3056
:10357000014607E00022254B20463146FDF74CF975
:10358000FDF7A8FA102409E0002C0ADB0A22002328
:10359000FDF728F8039B30321A55641E50EA0102E9
:1035A000F2D1641C039AC4F111031444119A012A44
:1035B00003D0012208430DD10AE0084304D00020C3
:1035C0004FF0110B119072E7A3EB0B056D1E0DE090
:1035D0005B4504DD4FF0000205F1010504E003DA6C
:1035E0004FF00002A5F10105002AECD002981199D4
:1035F000C0E90231C0E9004579E70000000014404D
:103600000000F03F300000000000F0430000E03F09
:1036100030380A2801D2012070470020704700008E
:103620002DE9FF4F95B09B468946064600250FE2DF
:10363000252877D100242746F84A0121059400E087
:10364000044316F8013F203B01FA03F01042F7D182
:1036500030782A2811D06FF02F033078A0F1300293
:10366000092A16D8059A44F0020402EB820203EB01
:1036700042021044761C0590EFE759F8042B05929E
:10368000002A03DA504244F40054059044F0020446
:10369000761C30782E2816D116F8010F44F0040459
:1036A0002A280DD06FF02F023078A0F13003092BBB
:1036B00009D807EB870302EB4303C718761CF3E72F
:1036C00059F8047B761C30786C280FD006DC4C2827
:1036D00017D068280DD06A2814D104E0742810D0BF
:1036E0007A280FD10DE044F400140AE044F4801469
:1036F00001E044F440147278824202D104F580144F
:10370000761C761C307866280BD013DC582877D0CE
:1037100009DC002875D04528F6D04628F4D0472883
:103720001AD19DE118E0632835D0642879D0652846
:1037300012D195E1702873D008DC6728F1D0692890
:103740006FD06E280DD06F2806D1B5E073282CD02D
:10375000752875D0782874D05A46179990476D1CF3
:1037600075E1C4F30250022809D003280DD0D9F81E
:10377000001004280DD00D6009F1040967E1D9F8A3
:103780000010EA17C1E90052F6E7D9F800100D80E1
:10379000F2E70D70F0E719F8041B8DF80010002017
:1037A0008DF80100EA46012003E059F804AB4FF020
:1037B000FF3061074FF0000102D40DE008F1010174
:1037C0008846B9420FDA8045F8DB1AF8081000295C
:1037D000F4D108E008F1010188468142FADB1AF8C9
:1037E00008100029F6D105985B46A0EB0807214692
:1037F0003846179A00F094FA284400EB080507E0D1
:103800004DE029E10DE01AF8010B5A46179990474F
:10381000B8F10108F7D25B4621463846179A13E102
:1038200042E00A220092C4F302524FF0000A022A38
:1038300008D059F804CB032A4FEAEC710AD00DE006
:1038400029E02AE009F1070121F00702F2E802C1AC
:10385000914609E00FFA8CFC4FEAEC71042A03D17F
:103860004FFA8CFC4FEAEC71002907DA0A46002176
:10387000DCF1000C61EB02012D2202E0220504D5EF
:103880002B228DF80420012203E0E20701D0202240
:10389000F7E7904659E00A2102E010220DE01021DE
:1038A0004FF0000A00910BE010224FF0000A44F0A4
:1038B00004040827009203E008224FF0000A009257
:1038C000C4F30252022A05D059F804CB0021032A7E
:1038D00008D009E009F1070121F00702F2E802C16E
:1038E000914605E01FFA8CFC042A01D10CF0FF0C74
:1038F0004FF00008220728D5702806D0009B83F0DF
:10390000100353EA0A0305D00EE040228DF804208C
:10391000012208E05CEA010206D030228DF8042082
:103920008DF8050002229046009B83F0080353EABD
:103930000A030AD15CEA010201D1620705D53022EF
:103940008DF804204FF001087F1E582804D034A0C1
:1039500003900EA802900DE036A0F9E753466046AA
:10396000009AFCF73FFE84460398825C0298401E52
:10397000029002705CEA0100F0D1029806A9081AD0
:1039800000F1200A600702D524F4803400E001270A
:10399000574502DDA7EB0A0000E0002000EB0A011A
:1039A000009005984144401A0590E00306D45B4618
:1039B0002146179A059800F0B3F90544002706E060
:1039C00001A85A46C05D179990476D1C7F1C47455A
:1039D000F6DBE0030CD55B462146179A059800F00C
:1039E0009FF9054404E030205A46179990476D1C12
:1039F0000099481E00900029F5DC08E00298029921
:103A00005A460078491C0291179990476D1CBAF1EB
:103A10000001AAF1010AF1DC65E1000009280100BA
:103A20003031323334353637383961626364656634
:103A300000000000303132333435363738394142F6
:103A4000434445460000000000F058F90544761C48
:103A5000307800287FF4ECAD19B02846BDE8F08F2F
:103A6000620700D4062709F1070222F0070CFCE8E0
:103A70000223E14603F000485FEA080C02D00FF28F
:103A8000702C0DE05FEA045C02D50FF2682C07E0B1
:103A90005FEAC47C02D00FF2602C01E0AFF2700C40
:103AA0004FF0FF3823F00043CDF850C065280CD00C
:103AB00006DC452809D046281DD047283DD13DE0E9
:103AC000662818D067287ED138E00021112F01DB4D
:103AD000112000E0781CCDE9000106A90EA8FFF72F
:103AE000D5FCDDE90F010E9A03910021009207F148
:103AF000010A04914DE04FF000400097CDE901101C
:103B000006A90EA8FFF7C2FCDDE90F0203920E9B87
:103B100011990022DDF80CA00093049211B9791CD0
:103B200000EB010AB7EB0A0004D4C0F1FF3007F143
:103B3000010A0490AAEB0700019044E0012F00DA8B
:103B400001270021112F01DD112000E03846CDE9C9
:103B5000000106A90EA8FFF799FCDDE90F010E9AF6
:103B60000391002104910092BA4621070CD40399D5
:103B7000514500DA8A46BAF1010F05DD009AAAF133
:103B80000101515C302908D0B84202DA10F1040F6B
:103B900006DA0121CDE9011015E0AAF10101E9E7FA
:103BA000002805DC049901440491AAEB000102E01D
:103BB000411C514500DD8A460499401A401C019081
:103BC0004FF000400290200704D40198504501DBDB
:103BD000CDF8048000208DF84F0002980DF14F07BA
:103BE000B0F1004F25D02B200E9002984FF0020824
:103BF00000280CDA404202902D200E9007E00A21A6
:103C00000298FCF7D9FC3031029007F8011DB8F199
:103C10000001A8F10108F2DC02980028EFD1791E1A
:103C20000E980870307800F0200040F0450007F84A
:103C3000020D12A8C01B00F107081498007800B10B
:103C4000012000EB0A01019801EBE0710598414465
:103C5000401A401E0590E00306D45B462146179AA1
:103C6000059800F05DF805441498007818B15A469C
:103C7000179990476D1CE00324D55B462146179A9F
:103C8000059800F04DF805441CE00498002807DB77
:103C9000DDE90301884203DD0098405C179901E0EB
:103CA000179930205A469047049805F10105401CA9
:103CB00004900198401E019004D12E205A46179975
:103CC00090476D1CBAF10001AAF1010ADDDC05E0A4
:103CD00017F8010B5A46179990476D1CB8F100016F
:103CE000A8F10108F4DC5B462146179A0598ABE67B
:103CF0002D0000002B000000200000002DE9F04105
:103D0000044600251E461746880404D405E03946BB
:103D10002020B0476D1C641EF9D52846BDE8F0810F
:103D20002DE9F041044600251E469046C80301D502
:103D3000302700E02027880404D505E041463846B6
:103D4000B0476D1C641EF9D52846BDE8F0810A68AD
:103D5000531C0B60107070470020FDF77FB9000006
:103D600070B50446B0F5000F25DB134D2946FCF76E
:103D70001EFB1249AC42C86009DA1021FCF755FB62
:103D8000FCF7D7FBBDE8704080B2FDF7ABB90C493A
:103D90008C420ADA4FF07E51FCF7D1FA1021FCF781
:103DA00044FBFCF7C6FB80B201E04FF6FF70BDE8B4
:103DB0007040FDF77BB970BD0000A03F7800002087
:103DC0000000204030B583B00446FFF743FB0546B2
:103DD0000020CDE90000024621466846FCF755FC6C
:103DE0002846FFF74DFBDDE9000103B030BD0000C0
:103DF0002DE9F041DFF8EC80ADF52E7D04464FF45F
:103E0000AE773A4669464046FFF758F83A46694663
:103E100057A8FCF705FA0A2257A93348FCF724FAF9
:103E2000002845D031A13B48FFF7BEF92E484FF09E
:103E30007E55002601685791416858910089CDE967
:103E40005A56CDE96E56CDE98256ADF86401324836
:103E5000AA903248AB903248AC903248CDE99656A1
:103E6000AD903A4657A96846FCF7DAF93A466946F2
:103E70004046FFF74FF82CA12648FFF795F9C4E913
:103E80000356C4E91756C4E92B56C4E93F56AA980D
:103E9000C4F84C01AB98C4F85001AC98C4F8540174
:103EA000AD98C4F858010DF52E7D0020BDE8F081D5
:103EB00026A11848FFF778F95A98E0605B982061CE
:103EC0006E98E0656F9820668298C4F8AC0083987D
:103ED000C4F8B0009698C4F8FC009798C4F80001A4
:103EE000D5E7000000000308A85E000853746F7255
:103EF000466C6167203D2030202C476574696E67F1
:103F00002044656661756C742056616C75650D0A98
:103F100000000000181000200000A0420000C8426D
:103F2000000020420000F04253746F72466C6167DB
:103F30002073657420746F20312C5772697465206A
:103F4000446F6E6521200D0A000000000D0A205309
:103F5000746F72466C6167203D2031200D0A0000AD
:103F60002DE9F043ADF5357D4FF4AE74224606A938
:103F70003848FEF7A3FF224606A95DA8FCF750F9D2
:103F800035A13A48FFF710F96098FCF7E6FA0246C7
:103F90000B4637A13548FFF707F96198FCF7DDFAC2
:103FA00002460B463BA13148FFF7FEF87498FCF738
:103FB000D4FA02460B4640A12C48FFF7F5F8759855
:103FC000FCF7CBFA02460B4644A12848FFF7ECF871
:103FD0008898FCF7C2FA02460B4649A12348FFF72E
:103FE000E3F88998FCF7B9FA02460B464DA11F4841
:103FF000FFF7DAF89C98FCF7B0FA02460B4652A19C
:104000001A48FFF7D1F89D98FCF7A7FA02460B462D
:1040100056A11648FFF7C8F8B398FCF79EFA8046F9
:104020008946B298FCF799FA06460F46B198FCF714
:1040300094FA04460D46B098FCF78FFA8DE8F00329
:1040400002460B4652A10948FFF7AEF80DF5357D43
:10405000BDE8F083000003080D0A0D0ABBD8B6C105
:10406000466C617368D6B50D0A0000001810002078
:1040700063616C695F74656D702E766F6C745F310F
:104080005B43414C495F4348305D2E672025670DF7
:104090000A00000063616C695F74656D702E766F55
:1040A0006C745F315B43414C495F4348305D2E6F18
:1040B0002025670D0A00000063616C695F74656DFF
:1040C000702E766F6C745F325B43414C495F43489E
:1040D000305D2E672025670D0A00000063616C6962
:1040E0005F74656D702E766F6C745F325B43414C0C
:1040F000495F4348305D2E6F2025670D0A000000A0
:1041000063616C695F74656D702E637572725F3187
:104110005B43414C495F4348305D2E672025670D66
:104120000A00000063616C695F74656D702E6375D1
:1041300072725F315B43414C495F4348305D2E6F83
:104140002025670D0A00000063616C695F74656D6E
:10415000702E766F5F7365745B43414C495F4348D3
:10416000305D2E672025670D0A00000063616C69D1
:104170005F74656D702E766F5F7365745B43414C41
:10418000495F4348305D2E6F2025670D0A0000000F
:1041900063616C695F74656D702E666F7263652E06
:1041A00066313A25672066323A25672066333A251C
:1041B000672066343A25670D0A0000002DE9F043B8
:1041C0000746ADF5457D6AA17248FEF7EDFF4FF059
:1041D000000871A16F48FEF7E7FF4FF060442246E8
:1041E000724B73A16B48FEF7DFFF6200794B7AA137
:1041F0006848FEF7D9FF81A16648FEF7D5FF844DD8
:1042000000222B4683A16348FEF7CEFF002213460F
:1042100089A16048FEF7C8FF90A15E48FEF7C4FF81
:1042200000222B4692A15B48FEF7BEFF00221346F8
:1042300098A15848FEF7B8FF9FA15648FEF7B4FF73
:104240004FF08042A14BA2A15248FEF7ADFF22469B
:10425000A84BA9A14F48FEF7A7FFB0A14D48FEF714
:10426000A3FF0024B54D2246B54B2046B5498DE845
:104270003F00B54BB5A14748FEF796FF00263046F4
:10428000354606AC0DF5407907E02C2927D009F812
:104290000010401CC0B2761CF6B2B95D0029F4D102
:1042A000C0A8FFF78FFDFCF76BF944F82500B2A119
:1042B0003848FEF779FF00204FF07C524FF07F53D3
:1042C00054F82010914201DD99421BDBB1A1314825
:1042D000FEF76AFF01200DF5457DBDE8F083C0A81B
:1042E000FFF770FDFCF74CF944F825006D1CEDB2AA
:1042F0000020CDF80083CDF80483CDF80883CDF8F5
:104300000C83C8E7801CC0B20828D9D3AE484FF44C
:10431000AE74224601681291416813910089ADF88C
:1043200050000698159007981690089829900998BB
:104330002A900A983D900B983E900C9851900D98B9
:1043400052900E9865900F9866901098679011980B
:10435000689012A969A8FBF763FF224669A99B48E8
:10436000FEF7D8FD9AA10B48FEF71EFF0020B2E72A
:10437000B3F6B3A7C8B1CAA1D6B5B9A9B2CEBFBC6E
:104380003C56204120CEAAB5A5CEBB3EA3A10D0A26
:10439000000000001810002044432F4443CAE4B337
:1043A000F6B5E7D1B9B5B5A3A10D0A00B2FCEF3F50
:1043B00063616C695F74656D702E766F6C745F31CC
:1043C0005B43414C495F4348305D2E672025670DB4
:1043D0000A0000005C5C734063616C695F74656D2A
:1043E000702E766F6C745F315B43414C495F43487C
:1043F000305D2E6F2025670D0A00000044432F44D6
:1044000043CAE4C8EBB5E7D1B9B5B5A3A10D0A001D
:104410000000F03F63616C695F74656D702E766FAC
:104420006C745F325B43414C495F4348305D2E679B
:104430002025670D0A00000063616C695F74656D7B
:10444000702E766F6C745F325B43414C495F43481A
:10445000305D2E6F2025670D0A00000044432F4475
:1044600043CAE4B3F6B5E7C1F7B5B5A3A10D0A0099
:1044700063616C695F74656D702E637572725F3114
:104480005B43414C495F4348305D2E672025670DF3
:104490000A00000063616C695F74656D702E63755E
:1044A00072725F315B43414C495F4348305D2E6F10
:1044B0002025670D0A00000044432F4443B5E7D18F
:1044C000B9C9E8B6A8B5B5A3A10D0A00A60AF03F80
:1044D00063616C695F74656D702E766F5F73657470
:1044E0005B43414C495F4348305D2E672025670D93
:1044F0000A000000043481BF63616C695F74656DFC
:10450000702E766F5F7365745B43414C495F43481F
:10451000305D2E6F2025670D0A00000034D6D6D1FD
:10452000B9C1A6C9E8D6C3B5B53030203031203185
:1045300030203131A3A10D0A0000000000005E40D0
:1045400000004440000059400000544063616C6921
:104550005F74656D702E666F7263652E66313A25E5
:10456000672066323A25672066333A25672066342D
:104570003A25670D0A0000000D0A6C616C616C61E0
:104580006C616C616C616C6C616C616C6C616C61B8
:10459000200D0A000D0A20D0A3D7BCCAFDBEDD67DE
:1045A000D6B5D2ECB3A3205479702E3C302E3566AC
:1045B0007E312E35663EA3ACC7EBD6D8D0C2D0B480
:1045C000C8EB200D0A000000A85E000800000308E8
:1045D000D0A3D7BCD6B5BBF1C8A1CDEAB1CFB2A2AA
:1045E000D0B4C8EB666C6173680D0A0070B5044600
:1045F0000A48806AFBF7A3FE0949FBF7A6FE0949B2
:10460000FBF74BFE054D8C3555F8AC1FFBF79DFEB7
:104610006968FBF742FE2060002070BD1C05002089
:10462000D49A82406F1203BB7047704708B50021CF
:10463000009100680649FBF788FE0649FBF72DFE4E
:104640000090684601F07EFA002800D0012008BDE5
:10465000CDCCCC3DEE7CDB4010B50121084600F00E
:1046600065F9FFF779FB4FF08040FFF779FBFDF725
:1046700096FF274A01212748FCF76CFE00F09AFFBD
:10468000C820FDF7A1F800F095FF234C0122114648
:104690002046FDF7A8F9012204212046FDF7A3F9E1
:1046A0001EA12D48FEF780FD2CA12B48FEF77CFDB6
:1046B00030A12948FEF778FD4FF480413348FDF7DB
:1046C00089F918B300213248017001780029FCD122
:1046D0003048FDF74EF808B1FCF7E5FE0D48143000
:1046E000FFF786FB08B1FCF7DEFE4FF07E5000F0CE
:1046F00069F84FF4FA742046FDF766F82046FDF796
:1047000063F82046BDE81040FDF75EB80121DAE706
:1047100098000020940500200010014048572056C2
:10472000657273696F6E3A56322E302020465720DC
:1047300056657273696F6E3A44454255475F56300D
:104740002E38202053572056657273696F6E3A5683
:10475000312E30200D0A00001810002040456E7ADE
:104760006F2E73756E2032303139303830320D0A89
:104770000D0A000044656275673A383067202620CC
:1047800031303067200D0A0D0A000000000C014096
:10479000900000202C0F002010B586B00446142293
:1047A00006496846FBF73CFDADF808400021684625
:1047B00000F0A5F80249086006B010BD585E000878
:1047C0006000002010B50C21FBF72FFE0649FBF717
:1047D000EEFDFBF7AEFE83B20022BDE810401146AD
:1047E0000248FCF7B9BF000082E253402C0F0020C2
:1047F00010B586B00446142206496846FBF710FD42
:10480000ADF808400021684600F079F80249486098
:1048100006B010BD805E000864000020124C08B590
:1048200004212046FDF7DBF801F03EFADFF83C906A
:104830000F4D104E4FF480484FF4FA7700904146E8
:104840004846FDF7C7F860B10121002000F06EF87E
:1048500001212046FDF7C3F83946684600F043F8C9
:10486000EDE7A86A3060F3E700100140000C01405A
:104870001C0500208C000020FDF7C8F8FEF7F4FBB3
:10488000FCF744FEFEF768F8FEF790F9FEF7AAF988
:10489000FEF7C4F9FEF7DEF9FEF7F8F9FEF70AF8BD
:1048A000FEF726F8FEF75EF9FFF7D6FEFEF73EF8B4
:1048B00000F020F8FEE701460020842900D0C81C43
:1048C000704710B51C20FDF711F92520FDF70EF9F2
:1048D000BDE81040FDF752B910B500B9012000F055
:1048E00083FF002010BD10B501B9012100F0A2FF27
:1048F000002010BD10B501F039F8002010BD3EB504
:1049000004460D46B0F90800FFF7D5FF02A9CDE92E
:104910000001208A2B4682B2D4E9001001F098F9F8
:10492000012801D000203EBD02983EBD10B50029EF
:1049300017D00C4C58B1012813D100220821204671
:10494000FDF751F8BDE810400A20FCF73DBF3220CA
:10495000FCF73AFF20460122BDE810400821FDF790
:1049600042B810BD000801402DE9F041184C0F4637
:104970000546E6682068001D00F07FFE38B9206813
:1049800090F82C1001208840216981432161681C26
:1049900007D137B12168BDE8F0410E48091D00F08C
:1049A000A4BE20683544B5424560216805D2A06B9D
:1049B000BDE8F041091D00F080BE606B091D00F0EC
:1049C0007CFEA06A854200D2A562BDE8F0810000AD
:1049D00038040020F41100202DE9F041054600F0D4
:1049E00091FE2E4CA068401CA06020682C4F10B196
:1049F000606940B32DE02560A068012829D1002618
:104A000006EB860007EB800000F049FE761C072EBF
:104A1000F6D323488C3000F042FE2148A03000F04D
:104A20003EFE1F48B43000F03AFE1D48C83000F08A
:104A300036FE1B48DC3000F032FE19488C306063D3
:104A40001430A06305E02068E96AC06A884200D893
:104A50002560606A401C6062E96A01202269884022
:104A60001043206101EB810007EB8000291D00F05D
:104A70003CFE00F067FE606900280CD02068E96AFF
:104A8000C06A884207D207494FF080500860BFF3E0
:104A90004F8FBFF36F8FBDE8F08100003804002016
:104AA0001811002004ED00E070B5114E114C17E014
:104AB00000F090FF3068B8B101F060F900F022FE1C
:104AC000F068C568281D00F0D8FDA068401EA060F1
:104AD0006068401E606000F035FE284600F00CF86B
:104AE00060680028E4D170BD01F048F9F8E70000E3
:104AF000E01100203804002010B50446006B00F0DF
:104B000035FE2046BDE8104000F030BE10484FF49E
:104B10007051420706D0C01D0D4920F00700411A10
:104B2000C1F570510B4A00230144C2E90003083962
:104B3000103A21F0070111604B600B600B1AC0E9BD
:104B4000001393604FF000405360D0607047000046
:104B50000812002084040020074C4FF08056074DB7
:104B6000FFF7A2FF20680128FAD92E60BFF34F8F0C
:104B7000BFF36F8FF4E700001811002004ED00E090
:104B80002DE9F0479A46DDE9098481466FF0030379
:104B9000206B03EB82021044089D20F0070670078B
:104BA00007D0502080F31188BFF34F8FBFF36F8F72
:104BB000FEE723180A5C83F834200A5C12B1401C1B
:104BC0001028F6D3002784F84370072D00D306255C
:104BD000E562C4E91157201D00F06CFD04F11800D6
:104BE00000F068FD2461C5F107006462A061E7641C
:104BF00084F8507052464946304600F081F92060F2
:104C0000B8F1000F01D0C8F80040BDE8F0870000FF
:104C100030B5114900E011460A688242FBD34B6867
:104C20005C18844203D140681844486008464368D1
:104C30001C18944209D1084C103C2468A24209D0A7
:104C400052681A4442600A6812680260814200D0C9
:104C5000086030BD0460F9E7840400200648416B19
:104C6000096829B1416BC968C968496881627047A0
:104C70004FF0FF31FAE70000380400200848406890
:104C8000401C4FF0500080F3118804D0BFF34F8FC9
:104C9000BFF36F8FFEE7BFF34F8FBFF36F8FFEE75A
:104CA0008C04002010B586B00446142206496846DC
:104CB000FBF7B6FAADF8084000216846FFF71FFE83
:104CC0000249C86006B010BD945E00086400002070
:104CD00070470000074AD2F8301101B10121064B9C
:104CE0005970D2F8342102B101229A7062F35F0147
:104CF0000170704700802242900000202DE9F04FA3
:104D000089B00446002008902948FFF7E3FF2848AF
:104D1000C01E90F9032032B1012A06D0022A42D0E7
:104D2000032A04D141E0216800E06168089120482D
:104D3000C01E90F9043093422ED01EA12448FEF7E5
:104D400033FA08A8FFF772FC0220FCF73DFD08A823
:104D5000FFF76CFCE068FBF700FC82468B46A0681E
:104D6000FBF7FBFB804689466068FBF7F6FB0546D0
:104D70000E462068FBF7F1FB04460F460898FBF748
:104D8000ECFBCDE9004702AF024687E8600F0B4617
:104D900010A10F48FEF708FA0548C01EC17801713E
:104DA00009B0BDE8F08FA168C0E7E168BEE7000088
:104DB0009300002044454255473A73746174653A44
:104DC0002564206C6173743A25640D0A00000000AC
:104DD0001810002044454255473A666F7263653AA1
:104DE00025672046313A25672046323A2567204616
:104DF000333A25672046343A25670D0A0000000043
:104E000008B500F051FF064D064C0090287810B907
:104E10002046FFF773FF0A216846FFF764FDF5E7B8
:104E200064000020F40600202DE9F041054600272B
:104E300000F0D0FD314E306808B9FFF767FEF0682A
:104E400005424BD1C5B3083568070ED005F0070001
:104E5000C0F108000544680707D0502080F311888E
:104E6000BFF34F8FBFF36F8FFEE72DB3706885429E
:104E700034D82248103001460C6801E020460C4628
:104E80006168A94202D221680029F7D131688C42B9
:104E900024D007682168016060680837411B102929
:104EA0000FD96019420708D0502080F31188BFF352
:104EB0004F8FBFF36F8FFEE710E041606560FFF733
:104EC000A7FE61687068401A7060B268904200D2B4
:104ED000B060F06801430020C4E9000100F04EFF1B
:104EE000780707D0502080F31188BFF34F8FBFF3AE
:104EF0006F8FFEE73846BDE8F081000074040020A3
:104F000010B5031F4FF080741C601B1F21F00101BE
:104F10001960191F024B0B60143940380A6010BD2C
:104F20007D4C00082DE9FE43DC4D288800047DD52A
:104F30000522DB49DBA0FBF797F90024002876D097
:104F40000522D749D9A0FBF78FF9002870D0052298
:104F5000D349D8A0FBF788F9D84FD94E002868D09C
:104F60000522CF49D7A0FBF77FF9002872D0052290
:104F7000CB49D6A0FBF778F900286CD00522C849A8
:104F8000D4A0FBF771F900287ED00522C449D3A034
:104F9000FBF76AF9002878D00522C149D1A0FBF7B8
:104FA00063F9BF4E0127DFF8448300286ED0052245
:104FB0003146CFA0FBF758F9002868D005223146CA
:104FC000CDA0FBF751F9002873D005223146CCA0C3
:104FD000FBF74AF900286DD005223146CAA0FBF73D
:104FE00043F9002867D004223146C9A0FBF73CF9F9
:104FF00000286ED005223146C7A0FBF735F90028FE
:1050000068D005223146C6A0FBF72EF90028DBD078
:1050100005223146C4A0FBF727F900287ED00522DF
:105020003146C3A0FBF720F9002803E02AE00AE09C
:1050300012E018E02C8072D0BFA103B0C348BDE8D5
:10504000F043FEF7B1B82C8001210020FFF76EFC81
:10505000BFA1F2E730E04FE001212C800846FFF7C6
:1050600065FCBEA1E9E72C806846009400F0E8FCEE
:1050700070B10098FBF771FA0B460246BAA1B3482B
:10508000FEF792F8BDE8FE835EE071E07FE0A1E00C
:1050900039460098FBF759F90090FBF75EFA00F0EB
:1050A0003DFA00223346FBF7CCF90B460246B4A189
:1050B000E5E7E1E0AFE0B4E02C806846009400F062
:1050C000D5FC40B10098FBF748FA0B460246B1A167
:1050D000D5E7BFE0C8E039460098FBF736F9009005
:1050E000FBF73BFA00F01AFA00223346FBF7A9F966
:1050F0000B460246ADA1C2E72C800294B04C216859
:1051000002A8FFF773FA0028206812D0FBF725FAEF
:1051100004460D460298FBF720FA01E0B1E0BAE040
:105120000B460246A7A18948CDE90045FEF73CF8A9
:10513000A8E7FBF712FA04460D460298FBF70DFAB2
:105140000B460246A7A1EEE72C806846009400F0CB
:105150002FFA0028009805D0FBF7FFF90B4602460E
:10516000A7A18CE7FBF7F9F90B460246ABA186E74E
:105170002C80ADF80040FFF757FA6846FFF755FA64
:10518000BDF80020ACA17148FEF70EF87AE72C803C
:1051900088F80070009456F8060F0190706802902D
:1051A00001A8FEF70FFEFBF7EBF900903460746086
:1051B000684600F071FC0028009805D0FBF7CDF997
:1051C0000B460246A1A15AE7FBF7C7F90B46024678
:1051D000A3A154E72C8088F800700094D6F806004C
:1051E000019001A8FEF7EEFDFBF7CAF90090F480EC
:1051F00034726846FFF71AFA0028009805D0FBF7CA
:10520000ACF90B4602469BA139E7FBF7A6F90B4622
:1052100002469DA133E72C80FEF7A2FEFFF704FAB9
:1052200014E02C80701DFEF7C9FF08B19BA104E7B4
:105230009EA14648FDF7B8FFFEF792FE9EA14348A7
:10524000FDF7B2FF4FF47A70FCF7BEFABDE8FE43FB
:10525000FFF737BB1E20FCF749FC2520FCF746FC76
:10526000FCF78CFC2C800DE72C8097493748FDF724
:105270009BFF95492031E0E62C80BDE8FE43FFF717
:1052800027BD2C8003B091A3BDE8F04391A293A168
:105290002E48FDF789BF9EA1CFE6000074000020D4
:1052A0009C04002050535F454E00000050535F4463
:1052B0004900000056695F526400000000007A4413
:1052C00000408F40566F5F5264000000496F5F528C
:1052D00064000000546D5F5264000000466F5F522E
:1052E00064000000566F5F537400000064000020EB
:1052F000466F5F53740000004572725F5264000095
:1053000043616C526400000043616C5774000000FC
:105310002A525354000000002A48656C70000000B7
:10532000536C43686B00000056657273690000009F
:105330002A426F6F740000000D0A436F6D6D616E3D
:1053400064204572726F720D0A0000001810002070
:1053500050535F454E204F4B0D0A000050535F44A1
:1053600049204F4B0D0A000056695F52643A252EC2
:1053700033665B565D204641494C0D0A0000000033
:1053800056695F52643A252E33665B565D204F4B5B
:105390000D0A0000566F5F52643A252E33665B5645
:1053A0005D204641494C0D0A00000000566F5F52D7
:1053B000643A252E33665B565D204F4B0D0A000084
:1053C0008C000020496F5F52643A252E33665B41A2
:1053D0005D5A65726F3A252E3566204641494C0D5F
:1053E0000A000000496F5F52643A252E33665B4124
:1053F0005D5A65726F3A252E3566204F4B0D0A00B7
:10540000546D5F52643A252E33665B43656C736955
:1054100075735D204641494C0D0A0000546D5F5282
:10542000643A252E33665B43656C736975735D2042
:105430004F4B0D0A00000000466F5F52643A25642E
:105440005B675D204F4B0D0A00000000566F5F53F5
:10545000743A25675B565D204641494C0D0A0000B1
:10546000566F5F53743A25675B565D204F4B0D0AAC
:1054700000000000466F5F53743A25675B675D204C
:105480004641494C0D0A0000466F5F53743A256748
:105490005B675D204F4B0D0A0000000043616C57B5
:1054A00074204641494C0D0A0000000043616C57CE
:1054B00074204F4B0D0A0000726573746172742D75
:1054C000696E670D0A0000000800002056312E307A
:1054D0002E30000056322E30000000004857205673
:1054E000657273696F6E3A25730D0A4657205665CB
:1054F0007273696F6E3A25730D0A535720566572A1
:1055000073696F6E3A544244200D0A0D0A00000080
:105510004552524F523A5442440D0A002DE9F04D83
:1055200007460E46FBF792FA04460D463A463346C6
:10553000FBF716FADFF86CA0DFF86CB01B4B0746E0
:10554000884616F0004F4FF000020AD0FBF7DAFA57
:105550000AD900225B4638464146FBF7EBFA1BD2DC
:1055600012E0FBF7CFFA08D2002253462046294624
:10557000FBF7F3F904460D460EE000225B46384681
:105580004146FBF7D7FA07D8002253462046294662
:10559000FBF742F904460D463146204665F31E01ED
:1055A000BDE8F08D0000F03F0000E03F0000E0BFEC
:1055B0000020704710B51E4C01212046FCF70FFA61
:1055C00004212046FCF70BFA08212046FCF707FAD5
:1055D0006420FCF7F9F801212046FCF700FA0421C9
:1055E0002046FCF7FCF908212046FCF7F8F9642076
:1055F000FCF7EAF801212046FCF7F1F904212046E6
:10560000FCF7EDF908212046FCF7E9F96420FCF7E6
:10561000DBF801212046FCF7E2F904212046FCF7E3
:10562000DEF92046BDE810400821FCF7D8B900009B
:105630000010014010B586B00446142206496846A1
:10564000FAF7EEFDADF8084000216846FFF757F97C
:105650000249886006B010BD6C5E0008640000203E
:1056600008B500F021FB0090FFF75CFCFBF71CFF86
:1056700001216846FFF737F9F6E7D0E90132016901
:105680009A60D0E901235A604A68824201D1826857
:105690004A60002202610868401E0860704700F1FD
:1056A00008014FF0FF32C0E90112C1600161002121
:1056B0000160704700210161704730B50B685A1CCA
:1056C00002D000F1080202E0026904E022465468B8
:1056D00025689D42FAD953684B6099608A60516091
:1056E00008610168491C016030BD42684A609368E6
:1056F0008B6093685960916008610168491C016082
:1057000070470000502080F31188BFF34F8FBFF324
:105710006F8F0A494868401C486001280CD108482E
:10572000006810F0FF0F07D0502080F31188BFF3FE
:105730004F8FBFF36F8FFEE7704700008C0400208F
:1057400004ED00E00849486828B1401E486001D1D6
:1057500080F311887047502080F31188BFF34F8F7A
:10576000BFF36F8FFEE700008C04002070B50028A7
:1057700027D0144DA0F108046168E868014207D100
:10578000502080F31188BFF34F8FBFF36F8FFEE778
:1057900022683AB1502080F31188BFF34F8FBFF3D6
:1057A0006F8FFEE78143616000F014F960686968FB
:1057B000084468602046FFF72BFABDE8704000F00F
:1057C000DDBA70BD7404002006484FF47A71006899
:1057D000B0FBF1F14FF0E020491E4161072101616A
:1057E000704700000000002010B5020014D00F48E0
:1057F000006B38B1502080F31188BFF34F8FBFF397
:105800006F8FFEE700F0E6F800211046FFF7ACF8D6
:1058100000F0B4FA002807D105494FF08050086025
:10582000BFF34F8FBFF36F8F10BD0000380400200F
:1058300004ED00E070B50D4604000BD095B11E4A92
:10584000106BB8B1502080F31188BFF34F8FBFF3B6
:105850006F8FFEE7502080F31188BFF34F8FBFF3A7
:105860006F8FFEE7502080F31188BFF34F8FBFF397
:105870006F8FFEE700F0AEF8D268236859199342A3
:1058800004D98B420AD9914202D807E08B42FAD957
:10589000881A21600021FFF767F800E0216000F01E
:1058A0006DFA002807D105494FF080500860BFF31A
:1058B0004F8FBFF36F8F70BD3804002004ED00E000
:1058C00070B50546FFF71EFF254C05B92568281D54
:1058D000FFF7D3FE58B9E86A224A00EB800152F87C
:1058E000211021B901218140206988432061A86AE3
:1058F00018B105F11800FFF7C0FE606A401C606235
:105900002068854208D11748291DC830FFF7EDFEF1
:105910006068401C606007E0A068401EA0602846E8
:10592000FFF7EAF8FFF79AF9FFF70CFF6069002824
:1059300014D02068854211D1206B38B1502080F3FB
:105940001188BFF34F8FBFF36F8FFEE706494FF00B
:1059500080500860BFF34F8FBFF36F8F70BD0000A2
:10596000380400201811002004ED00E01CB5154893
:105970000024CDE900402346802213A1144800F002
:1059800067F9012809D0401C1AD1502080F31188F2
:10599000BFF34F8FBFF36F8FFEE7502080F3118866
:1059A000BFF34F8FBFF36F8F06484FF0FF312C3896
:1059B000816201214161C460BDE81C4000F00EB964
:1059C0001CBD00006404002049444C450000000058
:1059D000594B00080248016B491C016370470000E5
:1059E000380400201448016B11B10121C1617047D6
:1059F0000021C1610169B1FA81F1C1F11F0101EB1F
:105A000081020E4951F822306BB101EB820101F1A4
:105A100008034A6852684A609A4201D152684A6053
:105A2000D16801607047502080F31188BFF34F8F19
:105A3000BFF36F8FFEE7000038040020181100202C
:105A400070B5044607480849006DFAF77EFC054D1D
:105A50008C35E968FAF779FC2969FAF71EFC2060B1
:105A6000002070BD1C050020D9D5704170B50446DA
:105A7000074808490068FAF768FC054D8C35E96865
:105A8000FAF763FC2969FAF708FC2060002070BD72
:105A90001C050020D9D570413EB500681649014467
:105AA000B1F5100F0BD9002014490246CDE90001D1
:105AB000134B14A11F48FDF777FB01203EBD1E4C80
:105AC00054F8FC1FFAF741FC6168FAF7E6FB1B4942
:105AD000FAF73BFC1A49FAF7E0FBFEF741F93220EE
