:020000040800F2
:10000000F009002045010008871A0008AF15000814
:10001000851A0008AD0100087920000800000000E2
:100020000000000000000000000000005701000870
:10003000D9010008000000005B0100085D1D0008F8
:100040005F0100085F0100085F0100085F01000810
:100050005F0100085F0100085F0100085F01000800
:100060005F0100085F0100085F0100085F010008F0
:100070005F0100085F0100085F0100085F010008E0
:100080005F0100085F0100085F0100085F010008D0
:100090005F0100085F0100085F0100085F010008C0
:1000A0005F0100085F0100085F0100085F010008B0
:1000B0005F0100085F0100085F0100085F010008A0
:1000C0005F0100085F0100085F0100085F01000890
:1000D0005F010008ED1F00085F0100085F010008D4
:1000E0005F0100085F0100085F0100085F01000870
:1000F0005F0100085F0100085F0100085F01000860
:100100005F0100085F0100085F0100085F0100084F
:100110005F0100085F0100085F0100085F0100083F
:100120005F0100085F0100085F0100085F0100082F
:10013000DFF80CD000F028F8004800472122000822
:10014000F00900200648804706480047FEE7FEE722
:10015000FEE7FEE7FEE7FEE7FEE7FEE7FEE7FEE777
:10016000D11D000831010008202A04DB203A21FAC1
:1001700002F00021704721FA02F3D040C2F12002C0
:100180009140084319467047064C074D06E0E06869
:1001900040F0010394E8070098471034AC42F6D3CE
:1001A000FFF7CAFF4C2200086C220008FEE700009F
:1001B00030B504460020651804E000BF14F8011BA8
:1001C00001F04AFFAC42F9D3002101F045FFBDE840
:1001D0003040002101F040BF7047000030B585B0CD
:1001E00000250446049500F0ABFB0A480121001BE2
:1001F000C00A03900095CDE9011404A9684600F0F7
:100200004DFA044600F03EFB14B1012005B030BDAC
:100210000020FBE70000040800B587B000F090FB69
:10022000684600F0B9FA00F02DFB034802998843B4
:1002300000D0022007B000BDF0FF0F0010B500F0A5
:100240007FFB03493420C860BDE8104000F01ABBB2
:10025000002002402DE9F04116468846054600245C
:1002600000F06EFB0E4F13E058F8242000232946BF
:10027000022000F025FB10B10320BDE8F08158F802
:1002800024002968814201D00220F6E7641C2D1D5C
:10029000B44201D2BD42E7D900F0F4FA0020ECE705
:1002A000FCFF030810B58EB0044607A800F074FAEE
:1002B000ACB10020019001200090A5208DF8100025
:1002C0009DF82D008DF811000A48099C044300F0A8
:1002D00037FB00F0E3FA00F035FA10B107E0012037
:1002E000E8E76846029400F069FA002800D004208C
:1002F0000EB010BDF0FF0F0006490020C86106488F
:10030000016941F004010161016941F040010161AD
:100310007047000090040020002002402DE9F047C3
:10032000DFF89C80D8F820104CF250390143CFB24E
:10033000C1F30726C1F307450C0E484600F02AF921
:1003400000283BD11F49C86100F0FCF9002835D1D5
:10035000D8F8102042F01002C8F81020FF2F07D064
:100360001948018839430180484600F013F9F8B96B
:10037000FF2E08D01448801C018831430180484674
:1003800000F008F9A0B9FF2D08D00F48001D018822
:1003900029430180484600F0FDF848B9FF2C07D0FA
:1003A0000948801D018821430180484600F0F2F889
:1003B000D8F8102022F01002C8F81020BDE8F0870D
:1003C000002002409004002008F8FF1F2DE9F047AC
:1003D000DFF89C80D8F820104CF250398143CFB21E
:1003E000C1F30726C1F307450C0E484600F0D2F8CA
:1003F00000283BD11F49C86100F0A4F9002835D17D
:10040000D8F8102042F01002C8F81020FF2F07D0B3
:100410001948018839400180484600F0BBF8F8B916
:10042000FF2E08D01448801C0188314001804846C6
:1004300000F0B0F8A0B9FF2D08D00F48001D0188CA
:1004400029400180484600F0A5F848B9FF2C07D0A4
:100450000948801D018821400180484600F09AF833
:10046000D8F8102022F01002C8F81020BDE8F0875C
:10047000002002409004002008F8FF1F0449A52036
:10048000C96901F00201022900D100207047000073
:100490000020024070B506464CF25035284600F068
:1004A00079F8002820D11149C861114C206940F029
:1004B00020002061206940F040002061284600F0C3
:1004C00069F8216921F02001216100280CD12069FF
:1004D00040F01000206107480680284600F05AF8D6
:1004E000216921F01001216170BD000090040020FD
:1004F0000020024000F8FF1F064A0021D161064992
:100500000A6942F002020A614861086940F040004D
:10051000086170479004002000200240044B002234
:10052000DA61044A136943F00103136101807047E3
:10053000900400200020024014480022C168CB062D
:10054000134904D5CA6942F00202CA611022C36885
:100550005B0705D5CB6943F00103CB6142F0040290
:10056000C369DB0707D0CB6943F00403CB61C169E2
:1005700021F00101C161A2F58071013901D0C26091
:100580007047C16921F00101C1617047002002403C
:100590009004002070B5054600F0E8FA0646114CBC
:1005A00009E0681C07D025B100F0E0FA801BA842E2
:1005B00001D9032070BDE068C007F2D1E068800671
:1005C00001D52020E060E068C00605D4E069C007DE
:1005D00002D1E068400703D5FFF7AEFF012070BDF0
:1005E000002070BD0020024001F002F801F002F985
:1005F0004FF48041164800F0ABFAC8B115480168C5
:10060000154A1140B1F1005F17D014A001F03CFB76
:10061000164C0421204600F0A0FA642000F02CF8CB
:100620000121204600F099FA642000F025F8F0E757
:10063000FFF704FE01F004F9EAE741680C4A116093
:100640000C4A1160006880F308888847E0E70000E2
:10065000000C0140005000080000FE2F0A0D6E6FD4
:100660002075736572206170700A0D0000100140E2
:10067000100000200C00002070B5044600F076FA4F
:100680000546601C02D004480078044400F06EFA6D
:10069000401BA042FAD370BD140000202DE9F047A2
:1006A000054626480F460126017E01290FD001216B
:1006B000814601762868DFF888804CF250340228A1
:1006C00008D0A2462046FFF765FFA8B131E002201E
:1006D000BDE8F0872046FFF75DFF08BB0120FFF76C
:1006E0000BFE2046FFF756FFD8F81010064621F003
:1006F0000401C8F810101CE04FF0FF303860AC68FF
:1007000011E02046FFF7F8FE5046FFF743FFD8F808
:100710001010060021F00201C8F8101001D03C6052
:1007200007E004F50064D5E9020100EBC120A04216
:10073000E7D8002189F818103046C9E79004002056
:100740000020024070B5FFF799FEC5B24CF250365A
:100750003046FFF71FFF002818D10D49C8610D4C26
:10076000206940F020002061206940F040002061B5
:100770003046FFF70FFF216921F020012161002899
:1007800004D12846BDE87040FFF784BE70BD00006C
:10079000900400200020024070B50446064D07205A
:1007A0002060286AA060FFF769FE2074E869C0F342
:1007B0008200607470BD0000002002402DE9F04707
:1007C0002D4D04460120297E01290ED001212976D4
:1007D00021784FF00007C9070DD060680128A06894
:1007E00006D0FFF79BFDE8BB05E00220BDE8F087DF
:1007F000FFF7ECFDF7E72178890703D5207CFFF7A9
:1008000049FE78BB21781D4E49074CF2503916D568
:1008100094F811804846FFF7BDFE78B9EF61306962
:1008200040F010003061164948F0880008804846C2
:10083000FFF7B0FE316921F01001316190B92178E4
:10084000090716D5D4F81480247E4846FFF7A2FE87
:1008500040B9EF61306940F010003061A8F8004005
:10086000484600E005E0FFF795FE316921F01001F0
:1008700031612F76BAE7000090040020002002408A
:1008800002F8FF1F0348016941F080010161002067
:10089000704700000020024000F02EBA05480169B0
:1008A000890505D4044981600449816000207047AE
:1008B000012070470020024023016745AB89EFCD3E
:1008C0002DE9F05F07461C4888460024017E154646
:1008D0001E46012909D00121814601764CF2503A89
:1008E0005046FFF757FE18B122E00220BDE8F09F06
:1008F000012F02D0022F00D00427D346DFF83CA0FE
:10090000220128463146FFF72FFC81B208EB440054
:10091000FFF704FE5846FFF73DFEDAF8102022F0FC
:100920000102CAF8102018B9641CE4B2BC42E7D333
:10093000002289F81820D9E7900400200020024006
:10094000064900200A69120607D5054A4A60054A89
:100950004A600969090600D501207047002002405D
:1009600023016745AB89EFCD2DE9F84FDFF8B8A13A
:1009700000220AF1040B144601274FF00F090BF176
:10098000040E00BF0B6807FA04F52B40AB4274D18C
:10099000DFF898C14E68A6EB0C0866452BD00DDC3D
:1009A000032E34D005DC36B3012E19D0022E2FD100
:1009B0001BE0112E16D0122E2AD119E0B8F5881F8F
:1009C00019D006DCB8F5803F15D0B8F5801F1FD1CF
:1009D00011E0B8F5001F0ED0B8F5041F18D10AE0D9
:1009E000CA6815E0CA68121D12E0CA6808320FE032
:1009F000CA680C320CE08A682AB1012A4FF008025A
:100A000003D0456104E0042202E0056100E0002219
:100A1000FF2B01D8064601E000F104064FEA8405E9
:100A200001D9A5F12005D6F800C009FA05F82CEA8D
:100A3000080C02FA05F54CEA050CC6F800C04D6832
:100A4000ED006AD53A4DAE6946F00106AE61AD697A
:100A500024F0030605F001050095364D06EB050C64
:100A6000DCF80850A6074FEA167809FA08F6B543ED
:100A7000314EB04202D100261AE04EE02F4EB04275
:100A800001D1012614E02E4EB04201D102260FE022
:100A90002C4EB04201D103260AE02B4EB04201D1C8
:100AA000042605E0294EB04201D1052600E00626C5
:100AB00006FA08F62E43CCF808604D68DAF80060B4
:100AC000ED03554601D51E4300E09E432E604D6860
:100AD000AD0305D5DBF800601E43CBF8006004E0F1
:100AE000DBF800509D43CBF800504D68DEF8006005
:100AF000ED02754601D51E4300E09E432E604D6811
:100B0000AD0205D5084D0C352E681E432E6004E05D
:100B1000054E0C3635689D433560641C102CFFF47F
:100B200031AFBDE8F88F0000000401400000111053
:100B3000001002400000014000080140000C01408C
:100B4000001001400014014000180140001C014049
:100B50008068084000D001207047C2684A40C260E7
:100B600070470AB1016170470904FBE701488068DA
:100B70007047000014000020024881680278114488
:100B80008160704714000020074810B5016841F0EB
:100B900010010160032000F09DF80F2000F006F81E
:100BA00000F024F8002010BD0020024070B50D4D6B
:100BB00004464FF47A712878B1FBF0F00A490968CD
:100BC000B1FBF0F000F03EFB48B9102C07D2002238
:100BD0002146501E00F05EF800206C6070BD0120C0
:100BE00070BD00001400002000000020214808B55E
:100BF000816941F001018161816901F00101009188
:100C0000C16941F08051C161C06900F0805000901D
:100C1000032000F05FF8002211466FF00B0000F097
:100C200039F8002211466FF00A0000F033F8002274
:100C300011466FF0090000F02DF800221146501FF8
:100C400000F028F800221146101F00F023F80022BF
:100C50000F21901E00F01EF800220F21501E00F000
:100C600019F80548416821F0E06141F000714160E8
:100C700008BD0000001002400000014000F01F020B
:100C8000012191404009800000F1E020C0F80011EE
:100C900070470000F0B40E4B1B680C46C3F30223F0
:100CA000C3F10705042D00D90425191D072901D218
:100CB000002300E0DB1E012606FA05F1491E214053
:100CC00099409E40761E16403143F0BC00F0DCBED9
:100CD0000CED00E0064900F0070208684FF6FF033C
:100CE000184040EA0220034A1043086070470000A1
:100CF0000CED00E00000FA05BFF34F8F05480168D6
:100D0000054A01F4E06111430160BFF34F8F00BF5A
:100D1000FDE700000CED00E00400FA052DE9F047C6
:100D2000DFF83C8105460E46D8F8000000F00700C9
:100D3000B0420CD2D8F8001021F007013143C8F8B6
:100D40000010D8F8000000F00700B04263D1287806
:100D5000444C800705D56068A96820F0F00008437E
:100D600060602878C00745D06868012816D02168DF
:100D7000022816D0890700294DDA616821F00301A5
:100D800001436160FFF7F2FE6968074641F288306F
:100D900001290FD00229814619D027E02168890353
:100DA000E9E78901E7E700BFFFF7E0FEC11B49451E
:100DB00001D918E081466068C0F381000128F3D1B1
:100DC00018E000BFFFF7D2FEC11B49450BD8606891
:100DD000C0F381000228F5D10CE000BFFFF7C6FE8A
:100DE000C11B494502D90320BDE8F087606810F0B7
:100DF0000C0FF3D1D8F80010404601F00701B142C2
:100E00000BD9016821F0070131430160006800F04F
:100E10000700B04201D00120E6E72878400705D559
:100E20006068E96820F4E0600843606028780007A3
:100E300006D56068296920F4605040EAC10060600E
:100E400000F03CF86168084AC1F30311515CC840E6
:100E5000064908600F20FFF7A9FE0020C4E7000044
:100E60000020024000100240322200080000002052
:100E70000148006870470000000000200448054950
:100E800000684968044AC1F30221515CC8407047B8
:100E900000000020001002404222000804480549DA
:100EA00000684968044AC1F3C221515CC8407047D8
:100EB00000000020001002404222000812A185B06C
:100EC0000FC98DE80F0014A0144A006804905168FF
:100ED000134801F00C03042B10D0082B0ED1C1F3E2
:100EE0008343C9031DF803000AD5516804AAC1F35E
:100EF0004041515C0A4A5043B0FBF1F005B07047E5
:100F000008494843FAE700000203040506070809F8
:100F10000A0B0C0D0E0F1010010200000010024011
:100F200000127A0000093D002DE9F84F04460078D0
:100F3000B94DC00748D06868C0F38100012807D0C8
:100F40006868C0F38100022809D16868C00306D52B
:100F50002868800338D5606800286FD034E0606866
:100F6000B0F5803F0BD010B1B0F5A02F11D028689C
:100F700020F480302860286820F4802002E028686F
:100F800040F480302860606888B1FFF7EFFD0646C6
:100F900009E0286840F480202860F0E7FFF7E6FDCC
:100FA000801B642875D828688003F7D50CE0FFF70C
:100FB000DDFD064605E000BFFFF7D8FD801B642875
:100FC000F0D828688003F7D42078944E80074FF03B
:100FD00001094FF000083BD5686810F00C0F07D0EE
:100FE0006868C0F38100022809D16868C00306D48C
:100FF0002868800714D5206901281FD110E02069D6
:10100000B0B1C6F80090FFF7B1FD074605E000BF9C
:10101000FFF7ACFDC01B0228C4D828688007F7D5AD
:101020002868616920F0F80040EAC10028600FE0FC
:10103000C6F80080FFF79AFD074606E0E9E000BF2A
:10104000FFF794FDC01B022823D828688007F7D437
:10105000207800072CD57248A169D9B1C0F800905A
:10106000FFF784FD074604E0FFF780FDC01B022860
:101070000FD8686A8007F7D56A484FF4FA510068BC
:10108000B0FBF1F0009000BF0098411E0091FAD231
:101090000EE080E0C0F80080FFF768FD074604E03E
:1010A000FFF764FDC01B022875D8686A8007F7D473
:1010B0002078400760D5E8690027C00008D4E869B7
:1010C00040F08050E861E869012700F0805000900E
:1010D00055480168C90513D40168834641F48071FD
:1010E0000160FFF743FD824606E000BFFFF73EFDCB
:1010F000A0EB0A0064284ED8DBF80000C005F5D547
:10110000E06801280AD008B1052813D0286A20F029
:1011100001002862286A20F0040002E0286A40F0FA
:1011200001002862E06841F2883B98B1FFF71EFD9C
:1011300082460BE0286A40F004002862EEE700BF18
:10114000FFF714FDA0EB0A0159455AD8286A800719
:10115000F6D50CE0FFF70AFD824605E0FFF706FD35
:10116000A0EB0A0159454CD8286A8007F6D41FB174
:10117000E86920F08050E861E06988B36968C1F3EC
:101180008101022945D00228C6F8608004D0FFF70B
:10119000EDFC044638E034E0FFF7E8FC074604E0E5
:1011A000FFF7E4FCC01B02282BD828688001F7D485
:1011B000206AB0F5803F05D16868A16820F400304E
:1011C00008436860D4E908010843696821F4741190
:1011D00008436860C6F86090FFF7C8FC044606E064
:1011E00015E000BFFFF7C2FC001B022809D82868E1
:1011F0008001F7D50BE000BFFFF7B8FC001B022809
:1012000002D90320BDE8F88F28688001F4D40020BB
:10121000F8E70120F6E7000000100240000042421B
:101220008004424200000020007000404FF0E021A6
:101230000428086903D020F004000861704740F0DA
:101240000400FAE710B5401EB0F1807F01D3012001
:1012500010BD4FF0E02460610F21601700F014FC16
:101260000020A06107202061002010BD70B504009F
:1012700004D094F83900002510B106E0012070BDBB
:1012800084F83850204600F023F8242084F83900F0
:101290002068C16821F40051C160204600F0BCFD07
:1012A0002068016921F4904101612068416921F0C1
:1012B0002A0141612068C16841F40051C160E563C1
:1012C000202084F8390084F83A00002070BD000026
:1012D000F0B501684F484E4F002405150222032344
:1012E000DFF834C1C61485B0B9420ED1C16941F4EA
:1012F0000021C161C069CDE9005200F40020CDE9B0
:10130000033069466546604679E0DFF810E1444FF6
:10131000714519D1C16941F48011C161C069694643
:1013200000F480100490B814CDE9000203936046E5
:10133000FFF71AFB0420CDE9000469463846029401
:10134000FFF712FB05B0F0BDDFF8D8C0614521D131
:10135000816941F4804181618069334E00F48040AD
:1013600004904FF40070CDE90002694603933046C3
:10137000FFF7FAFACDE90054694630460294FFF7C8
:10138000F3FA002205212520FFF784FC2520FFF732
:1013900075FCD7E7DFF894C061451FD1C16941F4FE
:1013A0000031C161C069694600F40030049020201A
:1013B000CDE9000203933846FFF7D6FA4020CDE985
:1013C0000004694638460294FFF7CEFA184841688F
:1013D00041F0E06141F008014160B3E7154FB942C7
:1013E000B0D1C16941F48021C161C069CDE9005229
:1013F00000F48020CDE903300F4D69462846FFF701
:10140000B3FACDE9006469462846029498E70000E3
:10141000004C00400010024000100140005000400D
:101420000014014000380140000801400044004021
:101430000000014000480040000C01402DE9F84345
:10144000044690F83A00994616460D4620284FD19A
:1014500095B18EB194F83800012849D0012084F864
:1014600038000027E763222084F83A00FFF77EFB6C
:10147000A6858046E68531E00120BDE8F883E08D51
:10148000401EE085A0684346B0F5805F4FF0000243
:101490004FF020012046CDF8009004D000F074FDFC
:1014A00098B10320E9E700F06FFD0028F9D1206929
:1014B00000282068406803D0C1B225F8011B0DE068
:1014C000C0F3080125F8021B08E020690028206805
:1014D000406801D000F07F0005F8010BE08D002886
:1014E000CDD1202084F83A0084F838700020C4E779
:1014F0000220C2E72DE9F843044690F839001F4660
:1015000016460D46202850D1A5B19EB194F838005A
:1015100001284AD0012084F838004FF00008C4F8B0
:101520003C80212084F83900FFF720FBA684814607
:10153000E68426E00120BDE8F883E08C401EE084CC
:10154000A0684B46B0F5805F4FF000024FF080017D
:101550002046009703D000F017FDE8B90DE000F039
:1015600013FDC8B928882168C0F3080048602069C5
:1015700008B16D1C05E0AD1C03E0216815F8010BF6
:101580004860E08C0028D8D14B46002240212046FC
:10159000009700F0F9FC08B10320CCE7202084F884
:1015A000390084F838800020C5E70220C3E7FEE751
:1015B000F0B500220D4B154614460A27B1FBF3F691
:1015C00030368654B1FBF3F603FB1611B3FBF7F389
:1015D000521C861816F8016C302E00D125B16D1CF6
:1015E000641C0A2CEAD3F0BD0022F9E700CA9A3B3A
:1015F0002DE9F04F794885B0816941F04001816162
:10160000816901F040010491816941F0100181611B
:10161000816901F010010491816941F00401816147
:10162000816901F004010491816941F0080181613F
:10163000816901F008010491816941F02001816113
:101640008069DFF89C9100F02000049000223F2187
:101650004846FFF786FADFF88CA10022EE215046BB
:10166000FFF77FFA002243F2C7115F48FFF779FACC
:10167000DFF878B14EF68038002241465846FFF731
:1016800070FA002248F698615948FFF76AFA002478
:101690007F20CDE90004694658460294FFF764F9BB
:1016A0004FF40050CDE90004694648460294FFF724
:1016B0005BF94CF2C0300325CDE900056946484688
:1016C000FFF752F90D200126CDE90006694648468C
:1016D000CDE90245FFF748F932200227CDE900069F
:1016E000CDE9024769464846FFF73EF948F2011046
:1016F000CDE9000569465046FFF736F98E20CDE961
:101700000006CDE9024769465046FFF72DF96020F3
:10171000CDE9000669465046CDE90245FFF724F9B8
:1017200043F20700CDE90006CDE9024769462E489D
:10173000FFF71AF9CDE9008669465846CDE902451A
:10174000FFF712F94FF4A050CDE90005694658465D
:10175000FFF70AF9A8038DE8510069462248FFF710
:1017600003F93002CDE90004694621480294FFF7ED
:10177000FBF840F69860CDE9000669461C48CDE9C3
:101780000245FFF7F1F84FF4E0408DE8910069461B
:101790001748FFF7E9F8F003CDE90006CDE9024765
:1017A00069461348FFF7E0F800956946104801952F
:1017B000FFF7DAF84FF4E070CDE9000669460A4811
:1017C000CDE90245FFF7D0F87002CDE90005694682
:1017D0000548FFF7C9F805B0BDE8F08F00100240DA
:1017E0000010014000080140000C014000180140B9
:1017F000001401400D4810B50B4901604FF4E13170
:101800004160002181600C22C160C0E90412816145
:10181000C161FFF72BFD002805D0BDE810407621FF
:1018200003A000F0EDBC10BD0038014030050020E1
:101830002E2E2F5372632F75736172742E63000006
:1018400008B500208DF8000031A000F01DFA34A08A
:1018500000F01AFAFEF7E0FC384C394D4FF0FF3635
:10186000206038A000F010FA3AA000F00DFA3EA077
:1018700000F00AFA40A000F007FA206808B141A081
:1018800000E045A000F000FA2868406833460122D5
:1018900069462B48FFF7D2FD9DF80000312807D09C
:1018A000322808D033280AD0342814D03FA003E0CF
:1018B00000F058F9D5E743A000F0E6F9D1E746A0DB
:1018C00000F0E2F949494868A0606060096881F366
:1018D00008888047C5E7206850B10120FEF7E2FC88
:1018E00008B143A0E8E74BA000F0CEF94EA009E014
:1018F0000020FEF7D7FC08B150A0DDE758A000F0AB
:10190000C3F95BA000F0C0F9FEF7C6FFA9E700002D
:101910000D0A3D205541525420444655203D0000BB
:101920000D0A3D20506F7274696E67204279204520
:101930006E7A6F2E73756E3D000000000800002067
:10194000300500200D0A4D454E55203E3E3E0D0A05
:101950000A000000202031202D3E444F574E4C4FAE
:1019600041440D0A00000000202032202D3E555039
:101970004C4F41440D0A0000202033202D3E52558B
:101980004E0D0A00202034202D3E454E2050524F4F
:101990005445430D0A000000202034202D3E4449C8
:1019A000532050524F5445430D0A00004E756D2090
:1019B0006661696C2D3E312C20322C2033206F72F1
:1019C00020340D004E4F54205045524D49542E2E78
:1019D0002E0D0A0A000000004150502052554E4979
:1019E0004E472E2E2E0D0A0A00000000005000085F
:1019F0004572726F723A20466C6173682072656D31
:101A00006F76652070726F74656374206661696CAF
:101A10000D0A000052454D4F56452050524F544537
:101A200043540D0A0000000053595354454D2052B1
:101A30004553544152540D0A000000004572726F24
:101A4000723A20466C617368207772697465207001
:101A5000726F74656374206661696C0D0A00000022
:101A600070726F74656374206F6B0D0A0000000064
:101A700073797374656D20726573746172740D0A85
:101A800000000000FEE770470907090E002806DA8B
:101A900000F00F0000F1E02080F8141D704700F105
:101AA000E02080F8001470472DE9F84300240F4629
:101AB0000646904613460C60012269462848FFF707
:101AC000BDFC050020D19DF80000182820D006DCC0
:101AD00001280BD002280BD0042804D104E04128AF
:101AE00027D0612825D0012530700DE0802401E049
:101AF0004FF480643070221D4346B11C1848FFF734
:101B00009DFC050017D0002428463C60BDE8F88302
:101B10004346012269461248FFF790FC18B99DF828
:101B20000000182803D001259DF80000DCE70224FE
:101B3000DAE70225D8E7F178B07881F0FF01884232
:101B40000AD130190179407900EB01282146301D76
:101B5000FEF72EFB4045D7D000240125D4E7000036
:101B6000300500201FB500200090019002900390E6
:101B700014A000F089F803A800F080FA38B1052815
:101B800017D0042819D0022819D016A012E019A0E5
:101B900000F07AF81D4800F077F868460399FFF7DF
:101BA00007FD1BA000F070F8684600F06DF81AA061
:101BB00000E01BA000F068F81FBD20A0FAE724A0F9
:101BC000F8E7000041505031207570646174696E0F
:101BD0006728707265737327612773746F70290AA1
:101BE0000D0000000A0D756E737570706F727421B0
:101BF0000A0D00000A0A0D444655206F6B210A0D9C
:101C00002D2D0D0A206E616D653A00004400002004
:101C10000A0D73697A653A0020627974650D0A00CD
:101C20000A0A0D66696C65206F76657220666C61C4
:101C300073682073697A65210A0D00000A0A0D761F
:101C40006572696679206661696C210A0D00000081
:101C50000D0A0A73746F7020627920757365722E95
:101C60000A0D000001B5074890F83910A02902D1EB
:101C7000202180F839106423012269460148FFF7CA
:101C800039FC08BD30050020002201E0521C92B250
:101C9000815C0029FAD1014664230148FFF72ABC80
:101CA00030050020F0B5054600242A78204623465A
:101CB000302A2ED16A78782A01D0582A29D10224D4
:101CC0001CE000BFA2F14106052E07D9A2F1610771
:101CD000052F03D91136092E04D913E0A2F13007DC
:101CE000092F01D8303A04E0052E01D8373A00E038
:101CF000573A641C02EB03130B2C04D22A5D002A12
:101D0000E0D103E000202A5D002A01D101200B6010
:101D1000F0BD2A5D62B16B2A01D04B2A02D10CB111
:101D20009B0205E06D2A01D04D2A04D11CB11B0590
:101D300001200B600AE0A2F13006092E0CD803EB5B
:101D400083036FF02F0606EB43031344641C0B2C34
:101D5000DED20128DDD1F0BD0020F0BDFEF70CBFC2
:101D600030B58FB00920012100904FF4803000245D
:101D700004910691CDE901040225CDE907504FF405
:101D8000E01009906846FFF7CFF800B1FEE70F209A
:101D9000CDE90A054FF48060CDE90C4002210AA884
:101DA0000E94FEF7BBFF00B1FEE7FFF761F84FF4BA
:101DB0007A71B0FBF1F0FFF745FA0420FFF736FA2D
:101DC00000220F21501EFEF765FF0FB030BD00004E
:101DD0000D48016841F00101016041680B4A114062
:101DE000416001680A4A11400160016821F48021C4
:101DF0000160416821F4FE0141604FF41F018160E0
:101E00000449C00308607047001002400000FFF85A
:101E1000FFFFF6FE08ED00E02DE9F0410446006802
:101E20000169E26821F44051114301612169A06810
:101E30000843616908432168CA6841F20C639A4308
:101E40000243CA6020684169A26921F440711143CC
:101E500041614C4920686425322688423CD1FFF715
:101E60001DF800EBC00101EB001061688900B0FBB8
:101E7000F1F7FFF713F800EBC00101EB0010616808
:101E8000B0468900B0FBF1F0B0FBF5F06FF018013F
:101E9000484307EB800106EB0110B0FBF5F000F0C2
:101EA000F006FEF7FBFF00EBC00101EB00106168DC
:101EB0008900B0FBF1F0B0FBF5F006EB0016FEF781
:101EC000EDFF00EBC00101EB001061688900B0FB81
:101ED000F1F7FEF7E3FF3BE0FEF7D0FF00EBC001B8
:101EE00001EB001061688900B0FBF1F7FEF7C6FF57
:101EF00000EBC00101EB00106168B0468900B0FB47
:101F0000F1F0B0FBF5F06FF01801484307EB8001EA
:101F100006EB0110B0FBF5F000F0F006FEF7AEFFA7
:101F200000EBC00101EB001061688900B0FBF1F02B
:101F3000B0FBF5F006EB0016FEF7A0FF00EBC001CA
:101F400001EB001061688900B0FBF1F7FEF796FF26
:101F500000EBC00101EB001061688900B0FBF1F0FB
:101F6000B0FBF5F06FF01801484307EB800108EB78
:101F70000110B0FBF5F0216800F00F0030448860DC
:101F8000BDE8F081003801402DE9F0419846174640
:101F90000E460446069D1DE0681C1BD02DB1FEF7C1
:101FA000E5FDA0EB0800A84214D92068C16821F41F
:101FB000D071C1602068416921F001014161202098
:101FC00084F8390084F83A00002084F838000320AF
:101FD000BDE8F0812068006836EA000004D00020E7
:101FE000B842D9D00020F3E70120F9E770B500220C
:101FF00001211548FEF7B5FD1448006880060ED58E
:102000001248001D0068C2B2114801880B0406D4B2
:102010004C044FF0000306D50A2A01D0038070BD9E
:1020200041F400410DE00D2A09D00A4DC1F30D0421
:102030002A55491C89B201802329EFD870BD41F48B
:102040008041018070BD0000001001400038014057
:10205000040000202000002041F4807141F22102A0
:1020600040004900CB0500D5401CC30300D55040BB
:10207000CB03F5D580B27047FEE700002DE9F14FA4
:102080000027DFF86CA188B03E46B9463C46D346EF
:10209000A6E000BF4FF0000845469DE04FF47A727D
:1020A00004A95448FFF700FD60B1022868D0B9F1D7
:1020B000000F00D0761C052E79D91820FFF7D2FD2D
:1020C000182087E00498002660B1022805D049490D
:1020D0008B7843450BD015207CE00620FFF7C2FD2E
:1020E000022479E00620FFF7BDFD012574E0B8F178
:1020F000000F14D082085846091DFEF7ABF8E8B36C
:102100001820FFF7AFFD1820FFF7ACFD5FF00404C7
:1021100008F1010000F0FF084FF001095CE00879C8
:1021200068B30020344B091D02E01A54401C491CBE
:102130000A780AB14028F8D34FF0000C03F800C029
:1021400060466B4601E01A54401C11F8012F202A0A
:1021500001D01028F7D303F800C006A91846FFF7EE
:10216000A1FD089845F201010068884214D91820A1
:102170000C058DF814002346012202E01EE017E052
:1021800022E005A91D48FFF7B5F92346012205A95C
:102190001A48FFF7AFF905245046FEF71FF80898D4
:1021A000069901600620FFF75DFD432009E010E07D
:1021B0000620FFF757FD01252F460DE00499062064
:1021C0008B44FFF74FFDA3E71820FFF74BFD1820C6
:1021D00084E74320FFF746FD55EA04003FF45EAF75
:1021E00057EA04003FF456AF09B02046BDE8F08F2F
:1021F000005000088400002044000020300500202A
:10220000FEE702E008C8121F08C1002AFAD1704791
:102210007047002001E001C1121F002AFBD1704766
:1022200010B5FEF7B1FCFFF79BFDFEF7DDF90020CE
:1022300010BD0000000000000000010203040607BA
:102240000809000000000102030400006C220008DD
:102250000000002020000000022200088C2200085C
:1022600020000020D00900001222000800A24A0429
:10227000000000000000000000000000000000005E
:0C22800001000000100000000000000041
:0400000508000131BD
:00000001FF
